:0400000080317A28A9
:100008007E1480312000911E0A280B282128911285
:1000180023009D1C102811281B281D121D160D30A9
:10002800F1009830F2009B314C2380312128803137
:10003800BC2080319A31E72280312000111C25280C
:1000480026287828E13097008330960011100A306E
:10005800F0000030F100903101208031710821005A
:10006800E1007008E0000C30F0000030F100903141
:100078000120803171082100DF007008DE000030A7
:10008800CC000830CD005E084C02F0005F084D3B04
:10009800F1009B317B23803171082100DF0070085B
:1000A800DE006608031959285A285E289D311A254A
:1000B800803166280030D5000030D4000030D300ED
:1000C8000030D2009E31622680319B3195238031E9
:1000D8002000111C7028712878280030F100983011
:1000E800F2009B314C2380317E10090080317C283E
:1000F800C53084009A308500EB30860000308700D8
:1001080004309A31CF2280310B3084009B30850037
:10011800DB3086000130870015309A31CF228031DC
:10012800D53084009A30850063308600023087001D
:1001380008309A31CF228031CE30840000308500DB
:100148001D309A31C9228031A030840001308500E9
:1001580022309A31C9228031203084000230850053
:1001680043309A31C92280317E1020009C31E02C26
:100178002100C601C60ACA01CB0120308600023020
:100188008700B0308400003085001430AD001600C0
:100198001A00AD0BCB283830EA004930E90068086E
:1001A800031DD728D8285F2C8731EF278031DD3A07
:1001B800031DDF28E0285B2C8731EF2780312100E1
:1001C800C7008731EF2780312100CA008731EF2728
:1001D80080312100CB004B080319F328F428FA28B2
:1001E800B030F0004B089B31E52380318731EF2791
:1001F80080312100AD00AE012D08C4002E08C500D5
:100208008731EF2780312100AD00AE012D08AE0007
:10021800AD012D08C4072E08C53D4B08F000B030CD
:10022800F1000030F2004A089C3121248031710825
:100238002100C9007008C8008731EF278031773A5C
:100248000319272928292A292100C601210049083C
:100258004506031D31294808440603193429352960
:100268003629C6016808031D3A293B29632C482C06
:100278004708F1004A08F200DD309A31FD2280314A
:10028800892911309A31E722803121006A08F1006A
:10029800FF39031D0230F20011309B3120238031D9
:1002A8001130F00021006A08F100FF39031D023007
:1002B800F2004A089C312124803171082100C900CC
:1002C8007008C8009A290E309A31E722803121003F
:1002D8006908F100FF39031D0230F2000E309B312E
:1002E800202380310E30F00021006908F100FF3929
:1002F800031D0230F2004A089C3121248031710824
:100308002100C9007008C8009A2921004A08AD00D8
:10031800AE012E08003A031992299A292D08033AAA
:1003280003194529043A031967299A29C830F100A5
:100338000030F20002309B312023803177309A312F
:10034800E7228031632CB030F0006A08F1004B08D6
:100358009B31AF2380313F302000A3000030A20042
:100368000030A1000030A0004530D9009C30D800F2
:100378004030D7000030D6004530BF008030BE0086
:100388000030BD000030BC0024003908F0003A08F5
:10039800F100F201F301003088312D20803173081B
:1003A8002000C3007208C2007108C1007008C000B4
:1003B8008B318A23803120003F08DD003E08DC00B5
:1003C8003D08DB003C08DA009031D4208031200061
:1003D8005908A7005808A6005708A5005608A40001
:1003E800893182218031200023082400B7002000B1
:1003F80022082400B600200021082400B5002000AF
:1004080020082400B4003B08F0003C08F100F20189
:10041800F301003088312D20803173082000C3009B
:100428007208C2007108C1007008C0004530BF00E2
:100438008030BE000030BD000030BC008B318A2304
:10044800803120003F08DD003E08DC003D08DB006D
:100458003C08DA004630D9004330D8005030D70085
:100468000030D6009031D420803120005908A700F0
:100478005808A6005708A5005608A4003F30A30056
:100488000030A2000030A1000030A0008931822194
:100498008031200023082100A30020002208210029
:1004A800A200200021082100A1002000200821002E
:1004B800A0009D317525803121002108E300200826
:1004C800E20024003D08F0003E08F100F201F301CB
:1004D800003088312D20803173082000C300720855
:1004E800C2007108C1007008C0004530BF008030EC
:1004F800BE000030BD000030BC008B318A23803143
:1005080020003F08DD003E08DC003D08DB003C0819
:10051800DA004630D9004330D8005030D7000030D8
:10052800D6009031D420803120005908A7005808FF
:10053800A6005708A5005608A4003F30A3000030C5
:10054800A2000030A1000030A00089318221803152
:10055800200023082100A300200022082100A20077
:10056800200021082100A100200020082100A0006F
:100578009D3175258031210021082300BF0021000D
:1005880020082300BE00240040082100E5002400C4
:100598003F082100E400632CB030F0006908F10046
:1005A8004B089B31AF23803149302000D90074308B
:1005B800D8002430D7000030D60024004908F000C5
:1005C8004A08F100F201F301003088312D20803112
:1005D80073082000DD007208DC007108DB00700879
:1005E800DA009031D4208031200059082300EE0031
:1005F800200058082300ED00200057082300EC00D5
:10060800200056082300EB0049302000D900743040
:10061800D8002430D7000030D60024004B08F00062
:100628004C08F100F201F301003088312D208031AF
:1006380073082000DD007208DC007108DB00700818
:10064800DA009031D4208031200059082300EA00D4
:10065800200058082300E900200057082300E8007C
:10066800200056082300E70044302000D9007A30E3
:10067800D8000030D7000030D60024004D08F00024
:100688004E08F100F201F301003088312D2080314D
:1006980073082000DD007208DC007108DB007008B8
:1006A800DA009031D4208031200059082300E60078
:1006B800200058082300E500200057082300E40024
:1006C800200056082300E30049302000D900743088
:1006D800D8002430D7000030D60024004F08F0009E
:1006E8005008F100F201F301003088312D208031EB
:1006F80073082000DD007208DC007108DB00700858
:10070800DA009031D4208031200059082400EA0012
:10071800200058082400E900200057082400E800B9
:10072800200056082400E70049302000D900743022
:10073800D8002430D7000030D60024005108F0003B
:100748005208F100F201F301003088312D20803188
:1007580073082000DD007208DC007108DB007008F7
:10076800DA009031D4208031200059082400E600B6
:10077800200058082400E500200057082400E40061
:10078800200056082400E30049302000D9007430C6
:10079800D8002430D7000030D60024005308F000D9
:1007A8005408F100F201F301003088312D20803126
:1007B80073082000DD007208DC007108DB00700897
:1007C800DA009031D4208031200059082300E2005B
:1007D800200058082300E100200057082300E0000B
:1007E800200056082300DF0049302000D90074306B
:1007F800D8002430D7000030D60024005508F00077
:100808005608F100F201F301003088312D208031C3
:1008180073082000DD007208DC007108DB00700836
:10082800DA009031D4208031200059082300DE00FE
:10083800200058082300DD00200057082300DC00B2
:10084800200056082300DB00632C4A08AD00AE01E7
:100858002E08003A0319312C5E2C2D08033A03198F
:10086800A729043A0319D02A5E2C05304A06031D2D
:100878003E2C3F2C5E2CEE01EE0A9C31AC248031DC
:100888002100E801E80A632C4708AD00AE012E08F4
:10089800003A0319502C632C2D080F3A0319392CF0
:1008A800553A0319292CFF3A03193C29632C2100D6
:1008B800C601632C632C8731EF2780315B2C210024
:1008C80046080800220065088039EA006535EC0012
:1008D800E41F6F2C702C712C6C146C080319752C88
:1008E800762C862C6C0A031D7A2C7B2C832C0030EA
:1008F800E5000030E4000030E3000030E200E417D7
:10090800E5018E2C0030E5000030E4000030E30003
:100918000030E20069088039EB006B086A060319A9
:10092800962C972C982C6A176935EB00E81F9D2C9C
:100938009E2C9F2C6B146B080319A32CA42CB42C8D
:100948006B0A031DA82CA92CB12C0030E90000303B
:10095800E8000030E7000030E600E817E901BC2CA9
:100968000030E9000030E8000030E7000030E60021
:100978006C086B020318C12CC22CEA2C6A1FC52C08
:10098800C62CCC2C80302300C20042082200EA0684
:100998006C08ED006B08EC006D08EB006208ED00D8
:1009A8006608E2006D08E6006308ED006708E300EA
:1009B8006D08E7006408ED006808E4006D08E800C9
:1009C8006508ED006908E5006D08E900ED016B08B0
:1009D8002300C200C3014308C50022006C0823009D
:1009E8004202C400031CC5034508803AC600803093
:1009F8004602031D012D1A304402031C042D052D47
:100A08003B2D22006508640463046204031D0D2D58
:100A18000F2D0130102D0030ED000030E5000030C2
:100A2800E4000030E3000030E2006B08EC00422DE7
:100A38006D1C1F2D202D242D6D360138ED00262D1F
:100A48000310ED0C621C292D2A2D2B2DED170130DA
:100A58002300C2002200E537E40CE30CE20C23007B
:100A6800C20B2E2D0130C20042082200EC072200E2
:100A78006B086C02031C412D422D1C2D6A1B452D51
:100A8800462D802D6C08031D4A2D4B2D542D00300A
:100A9800E5000030E4000030E3000030E200A22E60
:100AA8006608E2076708E33D6808E43D6908E53D34
:100AB800651C5F2D602D222E6D1C632D642D682D05
:100AC8006D360138ED006A2D0310ED0C621C6D2D9A
:100AD8006E2D6F2DED1701302300C2002200E5377F
:100AE800E40CE30CE20C2300C20B722D0130C200AF
:100AF80042082200EC07222E6508803A2300C20033
:100B080022006908803A230042022200031D962D24
:100B180068086402031D962D67086302031D962D5D
:100B2800660862020318992D9A2DE42DFF302300E0
:100B3800C200FF30C300FF30C400FF30C5002200F0
:100B4800620866022300C60022006308673B230090
:100B5800C70022006408683B2300C800220065081B
:100B6800693B2300C9004608C2074708C33D480837
:100B7800C43D4908C53D45082200E5002300440856
:100B88002200E400230043082200E3002300420877
:100B98002200E20080302300C20042082200EA0658
:100BA800ED09ED0A6D08031DDA2DDB2DEC2D013062
:100BB800E2070030E33D0030E43D0030E53DEC2D38
:100BC8006608E2026708E33B6808E43B6908E53B1E
:100BD8006508640463046204031DF32DF42D1E2EBE
:100BE8006D08031DF82DF92D1E2E0030E50000308C
:100BF800E4000030E3000030E200A22E0130E235CC
:100C0800E30DE40DE50D890B032EED1F0C2E0D2EC3
:100C18000E2E62146D1C112E122E152E0314ED0DBE
:100C2800172E0310ED0D6C0803191B2E1C2E1E2EFB
:100C38000130EC02E41F212E222E022EEB01ED1FC3
:100C4800262E272E352E6D087F3903192C2E2D2E92
:100C5800302EEB01EB0A352E621C332E342E352E46
:100C68002D2E6B080319392E3A2E772E0130E20704
:100C78000030E33D0030E43D0030E53D651C452E85
:100C8800462E772E62082300C20022006308230044
:100C9800C300220064082300C40022006508230062
:100CA800C5000130C600C537C40CC30CC20CC60B46
:100CB800572E45082200E500230044082200E400DE
:100CC800230043082200E300230042082200E20038
:100CD8006C0A0319702E712E772E01302300C20082
:100CE80042082200EC076C0A03197B2E7C2E812E09
:100CF8006C08031D802E812E8F2E0030E5000030F9
:100D0800E4000030E3000030E2006C08031D8D2E83
:100D18008E2E8F2EEA016C1C922E932E952EE417A0
:100D28009B2E7F302300C20042082200E4056C3667
:100D3800E500EA1FA02EA12EA22EE51708006400E8
:100D48002100951324009015783021009904FC3077
:100D5800990599178E1124008E1121000E12240076
:100D68000E1221008E1224008E1221000D11230074
:100D78000D1124000D1121008D1123008D11240067
:100D88008D1121000D1223000D1224000D122100D7
:100D98008D1223008D1224008D1288310020863197
:100DA8002000181198111810991318139813181275
:100DB8009812E1309700833096003000910192013B
:100DC800013094000130A600FF30A500A4013230A4
:100DD800A300A201A1012E15161115151C141A1431
:100DE8001B148030910021000E1124000E112100E7
:100DF8008C1523008C1524008C1121008D142300E0
:100E08008D1424008D1021000D1423000D142400CE
:100E18000D1021008C1623008C1624008C12210042
:100E28009D131E088F3920389E001E111E08FC399C
:100E380001389E009E170F309F041D1422001D11BB
:100E48009D1023009C018A309B001E159F151E12C1
:100E58009D179E161D161E131D13210091121112A7
:100E680020008E110E1205302300D5000F30D4005B
:100E7800F130890B3D2FD40B3D2FD50B3D2F200092
:100E88008E1505302300D5000F30D400F130890BC2
:100E98004B2FD40B4B2FD50B4B2F20008E11053029
:100EA8002300D5000F30D400F130890B592FD40B13
:100EB800592FD50B592F20008E1605302300D50049
:100EC8000F30D400F130890B672FD40B672FD50B67
:100ED800672F23006208AF006108AE006008AD000C
:100EE8005F08AC005E08AB005D08AA005C08A900BA
:100EF8005B08A8000030A7000030A6000030A5005D
:100F08000030A40000302100D5000030D4000030AB
:100F1800D3000030D20005302300D5000F30D400B4
:100F2800F130890B952FD40B952FD50B952F2000D9
:100F38008E110E122100E60120008E12423023008D
:100F4800A3004830A2000030A1000030A0009B316F
:100F5800CA238631883100208631080021006808BC
:100F68000319B72FB82FEB2F57302300C1003708CC
:100F78002400D800230036082400D70023002308C3
:100F8800CD002208CC002108CB002008CA009D31E2
:100F9800E625873123004B082400E20023004A0895
:100FA8002400E100DD309A31F12287312300410825
:100FB8002200A100FF39031D0230A2000C309B3132
:100FC8006323873177309A31F1228731EE2F23005E
:100FD800B601B701080023009D1CF32FF42FF62F4C
:100FE8001D121D162000911EFA2FFB2FF62F23002D
:040FF80019080800CC
:1010000020000D1168302200A000E430890B062872
:10101000A00B0628000020008D1168302200A000DF
:10102000E430890B1128A00B1128000020000D12BC
:1010300068302200A000E430890B1C28A00B1C287B
:10104000000020008D1268302200A000E430890BDF
:101050002728A00B272800000800F80078080319AB
:10106000322833284728F31F3628372847287009A5
:10107000FA007109FB007209FC007309FD00FA0A0D
:101080000319FB0A0319FC0A0319FD0A4F28730808
:10109000FD007208FC007108FB007008FA0073087C
:1010A000720471047004031D56285728602800300C
:1010B000F3000030F2000030F1000030F000D628DC
:1010C0009630F9006E280130F4007408F9070130F9
:1010D000FD36FC0CFB0CFA0C890B6828FE307D05F4
:1010E000031D73287428632888280130F4007408CD
:1010F000F9070130FA070030FB3D0030FC3D0030BD
:10110000FD3D0130FD36FC0CFB0CFA0C890B8228EE
:10111000FF307D05031D8D288E2875289828013005
:10112000F9020130FA35FB0DFC0DFD0D890B9228FB
:10113000FC1B9B289C28A228023079020318A128B6
:10114000A2288F287918A528A628AE28FF30FA05EE
:10115000FF30FB057F30FC05FF30FD050310F90C67
:101160007908F400F501F601F7011830F435F50DB2
:10117000F60DF70D890BB6287408FA047508FB0400
:101180007608FC047708FD0478080319C828C928E4
:10119000CE28F31FCC28CD28CE28FD177D08F300DC
:1011A0007C08F2007B08F1007A08F00008002200B9
:1011B000A80028080319DD28DE28F228A31FE1284B
:1011C000E228F2282009AA002109AB002209AC007C
:1011D0002309AD00AA0A0319AB0A0319AC0A0319C3
:1011E000AD0AFA282308AD002208AC002108AB00A4
:1011F0002008AA002308220421042004031D012939
:1012000002290B290030A3000030A2000030A10009
:101210000030A00081299630A90019290130A400CE
:101220002408A9070130AD36AC0CAB0CAA0C890B15
:101230001329FE302D05031D1E291F290E293329D0
:101240000130A4002408A9070130AA070030AB3DF3
:101250000030AC3D0030AD3D0130AD36AC0CAB0CD8
:10126000AA0C890B2D29FF302D05031D382939299A
:10127000202943290130A9020130AA35AB0DAC0D5C
:10128000AD0D890B3D29AC1B462947294D2902305C
:10129000290203184C294D293A2929185029512986
:1012A0005929FF30AA05FF30AB057F30AC05FF3070
:1012B000AD050310A90C2908A400A501A601A701EA
:1012C0001830A435A50DA60DA70D890B612924089A
:1012D000AA042508AB042608AC042708AD04280896
:1012E0000319732974297929A31F77297829792962
:1012F000AD172D08A3002C08A2002B08A1002A0876
:10130000A0000800200023088039B0002335B20077
:10131000A21F8B298C298D29321432080319912997
:101320009229A229320A031D962997299F29003064
:10133000A3000030A2000030A1000030A000A217DE
:10134000A301AA290030A3000030A2000030A100B0
:101350000030A00027088039B10031083006031999
:10136000B229B329B42930172735B100A61FB929EE
:10137000BA29BB29311431080319BF29C029D02942
:10138000310A031DC429C529CD290030A70000302A
:10139000A6000030A5000030A400A617A701D82998
:1013A0000030A7000030A6000030A5000030A400E7
:1013B000320831020318DD29DE29042A301FE12911
:1013C000E229E6298030A8002808B0063208B300D8
:1013D0003108B2003308B1002008B3002408A0008F
:1013E0003308A4002108B3002508A1003308A50094
:1013F0002208B3002608A2003308A6002308B30081
:101400002708A3003308A700B3013108A800A901E9
:101410002908AB0032082802AA00031CAB032B08E2
:10142000803AAC0080302C02031D182A1A302A02A0
:10143000031C1B2A1C2A4E2A2000230822042104F4
:101440002004031D242A262A0130272A0030B30055
:101450000030A3000030A2000030A1000030A00046
:101460003108B200552A331C362A372A3B2A333634
:101470000138B3003D2A0310B30C201C402A412A36
:10148000422AB3170130A800A337A20CA10CA00C6C
:10149000A80B442A0130A8002808B2072000310810
:1014A0003202031C542A552A332A301B582A592A3F
:1014B0008F2A3208031D5D2A5E2A672A0030A300A6
:1014C0000030A2000030A1000030A000892B2408C9
:1014D000A0072508A13D2608A23D2708A33D231CFF
:1014E000722A732A1B2B331C762A772A7B2A3336DF
:1014F0000138B3007D2A0310B30C201C802A812AF6
:10150000822AB3170130A800A337A20CA10CA00CAB
:10151000A80B842A0130A8002808B2071B2B230837
:10152000803AA8002708803A2802031DA12A26082D
:101530002202031DA12A25082102031DA12A240835
:1015400020020318A42AA52ADD2AFF30A800FF30B4
:10155000A900FF30AA00FF30AB0020082402AC0035
:101560002108253BAD002208263BAE002308273B7F
:10157000AF002C08A8072D08A93D2E08AA3D2F086A
:10158000AB3D2B08A3002A08A2002908A1002808C7
:10159000A0008030A8002808B006B309B30A3308B9
:1015A000031DD32AD42AE52A0130A0070030A13D2B
:1015B0000030A23D0030A33DE52A2408A002250802
:1015C000A13B2608A23B2708A33B230822042104B1
:1015D0002004031DEC2AED2A172B3308031DF12AE2
:1015E000F22A172B0030A3000030A2000030A10027
:1015F0000030A000892B0130A035A10DA20DA30D54
:10160000890BFC2AB31F052B062B072B2014331C38
:101610000A2B0B2B0E2B0314B30D102B0310B30D41
:1016200032080319142B152B172B0130B202A21FFD
:101630001A2B1B2BFB2AB101B31F1F2B202B2E2B88
:1016400033087F390319252B262B292BB101B10A29
:101650002E2B201C2C2B2D2B2E2B262B3108031947
:10166000322B332B602B0130A0070030A13D00301E
:10167000A23D0030A33D231C3E2B3F2B602B2008B6
:10168000A8002108A9002208AA002308AB00013005
:10169000AC00AB37AA0CA90CA80CAC0B492B2B083F
:1016A000A3002A08A2002908A1002808A000320AE5
:1016B00003195B2B5C2B602B0130A8002808B207B4
:1016C000320A0319642B652B6A2B3208031D692B20
:1016D0006A2B782B0030A3000030A2000030A1005C
:1016E0000030A0003208031D762B772B782BB00139
:1016F000321C7B2B7C2B7E2BA217822B7F30A800E9
:101700002808A2053236A300B01F872B882B892B0F
:10171000A317080020003F088039C9003F35CF00DB
:10172000BE1F932B942B952B4F144F080319992B05
:101730009A2BA92B4F0A031D9E2B9F2BA72B003002
:10174000BF000030BE000030BD000030BC00BE173E
:10175000B12B0030BF000030BE000030BD000030B3
:10176000BC0043088039C4004408C9064335CE0094
:10177000C21FBB2BBC2BBD2B4E144E080319C12B13
:10178000C22BD12B4E0A031DC62BC72BCF2B0030EB
:10179000C3000030C2000030C1000030C000C217DA
:1017A000D92B0030C3000030C2000030C10000302F
:1017B000C0004E080319DD2BDE2BE32B4F08031D61
:1017C000E22BE32BEC2B0030BF000030BE000030DA
:1017D000BD000030BC00C42D3C08F00042089C3124
:1017E00065248B3171082000D5007008D40054089E
:1017F000C400C501C601C7014708CD004608CC009A
:101800004508CB004408CA005508C400C501C601FC
:10181000C7014708D3004608D2004508D100440854
:10182000D0003D08F00041089C3165248B317108DF
:101830002000D5007008D4005408C400C501C601BA
:10184000C7014408CA074508CB3D4608CC3D4708B8
:10185000CD3D5508C400C501C601C7014408D007E5
:101860004508D13D4608D23D4708D33D3E08F0002B
:1018700040089C3165248B3171082000D500700828
:10188000D4005408C400C501C601C7014408CA07F2
:101890004508CB3D4608CC3D4708CD3D5508C40022
:1018A000C501C601C7014408D0074508D13D460817
:1018B000D23D4708D33D0830CA35CB0DCC0DCD0DF8
:1018C000890B5C2C3D08F00040089C3165248B316D
:1018D00071082000D5007008D4005408CA075508C4
:1018E000CB3D0030CC3DCD3D3C08F00041089C3163
:1018F00065248B3171082000D5007008D40054088D
:10190000CA075508CB3D0030CC3DCD3D0830CA3527
:10191000CB0DCC0DCD0D890B872C3C08F000400879
:101920009C3165248B3171082000D5007008D400EB
:101930005408CA075508CB3D0030CC3DCD3D3D088D
:10194000F00042089C3165248B3171082000D500DD
:101950007008D4005408D0075508D13D0030D23D5E
:10196000D33D3E08F00041089C3165248B3171085D
:101970002000D5007008D4005408D0075508D13D88
:101980000030D23DD33D3E08F00042089C31652432
:101990008B3171082000D5007008D4005408C400B1
:1019A0005508C500C601C7010830C435C50DC60DB0
:1019B000C70D890BD52C4408D0074508D13D4608F2
:1019C000D23D4708D33D4A08C4004B08C5004C0827
:1019D000C6004D08C7001830C736C60CC50CC40C6D
:1019E000890BEC2C4408D0074508D13D4608D23D70
:1019F0004708D33D0830CA35CB0DCC0DCD0D890B32
:101A0000FB2C4F084E07C400C501C50D4408823E9B
:101A1000D400FF30453DD500242D0130D035D10D07
:101A2000D20DD30D890B0E2DCD1F172D182D192D6D
:101A300050140130CA35CB0DCC0DCD0D890B1A2DAC
:101A4000FF30D407FF30D53DD21F272D282D0D2D77
:101A5000CE01CD1F2C2D2D2D492DFF304A05C40060
:101A6000FF304B05C500FF304C05C6007F304D05EB
:101A7000C70047084604450444040319402D412D7E
:101A8000442DCE01CE0A492D501C472D482D492DFD
:101A9000412D4E0803194D2D4E2D762D0130D007C6
:101AA0000030D13D0030D23D0030D33D531C592D84
:101AB0005A2D762D5008C4005108C5005208C600A2
:101AC0005308C7000130C800C737C60CC50CC40C8A
:101AD000C80B642D4708D3004608D2004508D10042
:101AE0004408D0000130D4070030D53D5508803A75
:101AF000C40080304402031D7F2DFF305402031CBC
:101B0000822D832D8D2D7F302000D3008030D20098
:101B10000030D1000030D000B82D20005508803AA8
:101B2000C40080304402031D972D01305402031875
:101B30009A2D9B2DA62D00302000D3000030D2001E
:101B40000030D1000030D000C901B82D2000540869
:101B5000CF00FF30D005FF30D1057F30D2050030F7
:101B6000D3054F1CB42DB52DB62DD2174F36D3004B
:101B70004908C4004408D3045308BF005208BE00FB
:101B80005108BD005008BC0008002200310880390F
:101B9000BB003135C100B01FCE2DCF2DD02D41144B
:101BA00041080319D42DD52DE42D410A031DD92D4B
:101BB000DA2DE22D0030B1000030B0000030AF006F
:101BC0000030AE00B017EC2D0030B1000030B00096
:101BD0000030AF000030AE0035088039B60036085E
:101BE000BB063535C000B41FF62DF72DF82D401477
:101BF00040080319FC2DFD2D0C2E400A031D012E5B
:101C0000022E0A2E0030B5000030B4000030B300C0
:101C10000030B200B417142E0030B5000030B4000C
:101C20000030B3000030B20040080319182E192EFE
:101C30001E2E4108031D1D2E1E2E272E0030B10022
:101C40000030B0000030AF000030AE00FF2F2E0893
:101C5000A00034089C3188248D3122002108C7005F
:101C60002008C6004608B600B701B801B901390816
:101C7000BF003808BE003708BD003608BC00470862
:101C8000B600B701B801B9013908C5003808C40069
:101C90003708C3003608C2002F08A00033089C3163
:101CA00088248D3122002108C7002008C60046087C
:101CB000B600B701B801B9013608BC073708BD3D09
:101CC0003808BE3D3908BF3D4708B600B701B80126
:101CD000B9013608C2073708C33D3808C43D390882
:101CE000C53D3008A00032089C3188248D31220087
:101CF0002108C7002008C6004608B600B701B80191
:101D0000B9013608BC073708BD3D3808BE3D390863
:101D1000BF3D4708B600B701B801B9013608C20790
:101D20003708C33D3808C43D3908C53D0830BC35C7
:101D3000BD0DBE0DBF0D890B972E2F08A0003208D8
:101D40009C3188248D3122002108C7002008C6005C
:101D50004608BC074708BD3D0030BE3DBF3D2E08CC
:101D6000A00033089C3188248D3122002108C7004F
:101D70002008C6004608BC074708BD3D0030BE3DF0
:101D8000BF3D0830BC35BD0DBE0DBF0D890BC22E49
:101D90002E08A00032089C3188248D3122002108B1
:101DA000C7002008C6004608BC074708BD3D0030F4
:101DB000BE3DBF3D2F08A00034089C3188248D31E2
:101DC00022002108C7002008C6004608C2074708AD
:101DD000C33D0030C43DC53D3008A00033089C31F0
:101DE00088248D3122002108C7002008C60046083B
:101DF000C2074708C33D0030C43DC53D3008A000C0
:101E000034089C3188248D3122002108C700200825
:101E1000C6004608B6004708B700B801B901083047
:101E2000B635B70DB80DB90D890B102F3608C2079E
:101E30003708C33D3808C43D3908C53D3C08B600E5
:101E40003D08B7003E08B8003F08B9001830B93661
:101E5000B80CB70CB60C890B272F3608C207370809
:101E6000C33D3808C43D3908C53D0830BC35BD0DFB
:101E7000BE0DBF0D890B362F41084007B600B701D4
:101E8000B70D3608823EC600FF30373DC7005F2FD2
:101E90000130C235C30DC40DC50D890B492FBF1FBD
:101EA000522F532F542F42140130BC35BD0DBE0D9F
:101EB000BF0D890B552FFF30C607FF30C73DC41F2C
:101EC000622F632F482FC001BF1F672F682F842FF9
:101ED000FF303C05B600FF303D05B700FF303E0542
:101EE000B8007F303F05B90039083804370436049C
:101EF00003197B2F7C2F7F2FC001C00A842F421C27
:101F0000822F832F842F7C2F40080319882F892F3D
:101F1000B12F0130C2070030C33D0030C43D003056
:101F2000C53D451C942F952FB12F4208B60043089C
:101F3000B7004408B8004508B9000130BA00B93705
:101F4000B80CB70CB60CBA0B9F2F3908C50038086F
:101F5000C4003708C3003608C2000130C60700308D
:101F6000C73D4708803AB60080303602031DBA2FBD
:101F7000FF304602031CBD2FBE2FC82F7F3022002A
:101F8000C5008030C4000030C3000030C200F32F11
:101F900022004708803AB60080303602031DD22F57
:101FA000013046020318D52FD62FE12F0030220032
:101FB000C5000030C4000030C3000030C200BB01C7
:101FC000F32F22004608C100FF30C205FF30C305D1
:101FD0007F30C4050030C505411CEF2FF02FF12FD5
:101FE000C4174136C5003B08B6003608C50445088D
:101FF000B1004408B0004308AF004208AE0008003A
:102002001A30890B022800327008F200F20DF20D2C
:1020120021001D087206833972069D001A30890B51
:102022001028003221009D149D18182819281528FF
:102032001C08F200F3017208F300F201003072058D
:10204200F5000F307305F60075081B04F7007608DB
:10205200F8007708F9007808FA007A08F1007908A0
:10206200F000080021006E03031D38283928622879
:1020720020000D156830F000E430890B3E28F00B8B
:102082003E28003220008D116830F000E430890BC8
:102092004828F00B4828003220000D126830F0006A
:1020A200E430890B5228F00B5228003220008D12A6
:1020B2006830F000E430890B5C28F00B5C280032B9
:1020C200D32802306E06031D672868287D28200069
:1020D2000D116830F000E430890B6D28F00B6D288B
:1020E200003220008D156830F000E430890B77282B
:1020F200F00B772800324D2803306E06031D82282C
:102102008328A42820000D116830F000E430890BE8
:102112008828F00B8828003220008D116830F000EA
:10212200E430890B9228F00B9228003220000D1621
:102132006830F000E430890B9C28F00B9C280032B8
:1021420020008D12D32804306E06031DA928AA2868
:10215200D32820000D116830F000E430890BAF283D
:10216200F00BAF28003220008D116830F000E4300F
:10217200890BB928F00BB928003220000D12683003
:10218200F000E430890BC328F00BC3280032200092
:102192008D166830F000E430890BCD28F00BCD2885
:1021A2000032D328080020005D088039E7005D3541
:1021B200EE00DC1FDD28DE28DF286E146E0803190E
:1021C200E328E428F4286E0A031DE828E928F12808
:1021D2000030DD000030DC000030DB000030DA00CF
:1021E200DC17DD01FC280030DD000030DC000030AF
:1021F200DB000030DA0059088039DE005E08E706AD
:102202005935EF00D81F0629072908296F146F08CE
:1022120003190C290D291D296F0A031D11291229E1
:102222001A290030D9000030D8000030D700003021
:10223200D600D817D90125290030D9000030D8009E
:102242000030D7000030D60059085804570456040D
:10225200031D2C292D2946290030DD000030DC0029
:102262000030DB000030DA008030DC047F30DD0437
:102272006708DE005E08DD045D08D9005C08D8004E
:102282005B08D7005A08D6007D2A6E08031D4A292A
:102292004B2954290030D9000030D8000030D70033
:1022A2000030D6007D2A6E08DE00DF015F08E10003
:1022B2006F085E02E000031CE10360087F3EE80055
:1022C2000030613DE9005D08E6005C08E5005B085E
:1022D200E4005A08E3000030DD000030DC0000308A
:1022E200DB000030DA000030ED000030EC0000309E
:1022F200EB000030EA00EF01BC296F0803198229C4
:1023020083299D290130E335E40DE50DE60D890BA6
:1023120084290130DA35DB0DDC0DDD0D890B8B29CB
:10232200ED1F9429952996295A140130EA35EB0DAF
:10233200EC0DED0D890B972959086602031DAB2997
:1023420058086502031DAB2957086402031DAB2917
:1023520056086302031CAE29AF29B8296D17560827
:10236200E3025708E43B5808E53B5908E63B0130D5
:10237200DE005E08EF071A306F02031CC129C22972
:102382007E2966086504640463040319C929CA29FD
:10239200E3296A14E3290130DA35DB0DDC0DDD0DAA
:1023A200890BCD29ED1FD629D729D8295A140130F6
:1023B200EA35EB0DEC0DED0D890BD929FF30E8075D
:1023C200FF30E93DDC1FE629E729CC29EF01ED1FAB
:1023D200EB29EC29082AFF306A05DE00FF306B0585
:1023E200DF00FF306C05E0007F306D05E100610821
:1023F20060045F045E040319FF29002A032AEF0127
:10240200EF0A082A5A1C062A072A082A002A6F08F5
:1024120003190C2A0D2A352A0130DA070030DB3D78
:102422000030DC3D0030DD3D5D1C182A192A352ABA
:102432005A08DE005B08DF005C08E0005D08E1008E
:102442000130E200E137E00CDF0CDE0CE20B232A64
:102452006108DD006008DC005F08DB005E08DA006E
:102462000130E8070030E93D6908803ADE0080303B
:102472005E02031D3E2AFF306802031C412A422AE3
:102482004F2AFF302000E8000030E9000030DD0074
:102492000030DC000030DB000030DA002000690888
:1024A200803ADE0080305E02031D592A0130680244
:1024B20003185C2A5D2A692A2000E801E90100303C
:1024C200DD000030DC000030DB000030DA00E70124
:1024D20020006808EE006E1C6F2A702A722ADC1730
:1024E200762A7F30DE005E08DC056E36DD00670886
:1024F200DE005E08DD043D29080022004F08803915
:10250200D9004F35E000CE1F872A882A892A601415
:10251200600803198D2A8E2A9E2A600A031D922AB8
:10252200932A9B2A0030CF000030CE000030CD002D
:102532000030CC00CE17CF01A62A0030CF000030E9
:10254200CE000030CD000030CC004B088039D000E6
:102552005008D9064B35E100CA1FB02AB12AB22A67
:10256200611461080319B62AB72AC72A610A031D32
:10257200BB2ABC2AC42A0030CB000030CA0000307B
:10258200C9000030C800CA17CB01CF2A0030CB00E7
:102592000030CA000030C9000030C8004B084A04AD
:1025A20049044804031DD62AD72AF02A0030CF0056
:1025B2000030CE000030CD000030CC008030CE04A0
:1025C2007F30CF045908D0005008CF044F08CB0009
:1025D2004E08CA004D08C9004C08C800272C6008E4
:1025E200031DF42AF52AFE2A0030CB000030CA006F
:1025F2000030C9000030C800272C6008D000D1018B
:102602005108D30061085002D200031CD3035208C0
:102612007F3EDA000030533DDB004F08D8004E0801
:10262200D7004D08D6004C08D5000030CF0000304E
:10263200CE000030CD000030CC000030DF00003092
:10264200DE000030DD000030DC00E101662B6108B5
:1026520003192C2B2D2B472B0130D535D60DD70D39
:10266200D80D890B2E2B0130CC35CD0DCE0DCF0DD3
:10267200890B352BDF1F3E2B3F2B402B4C14013097
:10268200DC35DD0DDE0DDF0D890B412B4B085802C9
:10269200031D552B4A085702031D552B49085602A4
:1026A200031D552B48085502031C582B592B622B2E
:1026B2005F174808D5024908D63B4A08D73B4B0862
:1026C200D83B0130D0005008E1071A306102031CE8
:1026D2006B2B6C2B282B58085704560455040319EE
:1026E200732B742B8D2B5C148D2B0130CC35CD0DBF
:1026F200CE0DCF0D890B772BDF1F802B812B822BE9
:102702004C140130DC35DD0DDE0DDF0D890B832B22
:10271200FF30DA07FF30DB3DCE1F902B912B762B5B
:10272200E101DF1F952B962BB22BFF305C05D00009
:10273200FF305D05D100FF305E05D2007F305F05BE
:10274200D30053085204510450040319A92BAA2B95
:10275200AD2BE101E10AB22B4C1CB02BB12BB22BF9
:10276200AA2B61080319B62BB72BDF2B0130CC073C
:102772000030CD3D0030CE3D0030CF3D4F1CC22B4E
:10278200C32BDF2B4C08D0004D08D1004E08D200DD
:102792004F08D3000130D400D337D20CD10CD00C67
:1027A200D40BCD2B5308CF005208CE005108CD00D8
:1027B2005008CC000130DA070030DB3D5B08803A7C
:1027C200D00080305002031DE82BFF305A02031C58
:1027D200EB2BEC2BF92BFF302200DA000030DB0070
:1027E2000030CF000030CE000030CD000030CC00F1
:1027F20022005B08803AD00080305002031D032C77
:1028020001305A020318062C072C132C2200DA017D
:10281200DB010030CF000030CE000030CD000030B0
:10282200CC00D90122005A08E000601C192C1A2C95
:102832001C2CCE17202C7F30D0005008CE056036DD
:10284200CF005908D0005008CF04E72A080023001F
:102852003A082200A00023003B082200A100A201A6
:10286200A30100308831D720943122002308B5001B
:102872002208B4002108B3002008B2004030B100A1
:102882002030B0000030AF000030AE008D31C525E1
:102892009431220031082300D9002200300823009D
:1028A200D80022002F082300D70022002E08230080
:1028B200D60059082200B500230058082200B400AF
:1028C200230057082200B300230056082200B2005A
:1028D2004530B1009C30B0004030AF000030AE0057
:1028E2008D31C525943122003108CF003008CE0049
:1028F2002F08CD002E08CC004530CB008030CA0016
:102902000030C9000030C80092317E22943122008A
:102912004B08E9004A08E8004908E7004808E600D1
:102922003F30E5000030E4000030E3000030E20018
:10293200843166249431220065082300CD002200F0
:1029420064082300CC00220063082300CB0022008D
:1029520062082300CA009D31E625943123004B080A
:102962002400DC0023004A082400DB0023003C088A
:102972002200A00023003D082200A100A201A30121
:1029820000308831D720943122002308B500220874
:10299200B4002108B3002008B2004530B1009C30D9
:1029A200B0004030AF000030AE008D31C52594310B
:1029B20022003108CF003008CE002F08CD002E08AB
:1029C200CC004530CB008030CA000030C900003056
:1029D200C80092317E22943122004B08E9004A0855
:1029E200E8004908E7004808E6003F30E50000300B
:1029F200E4000030E3000030E200843166249431C8
:102A0200220065082300CD00220064082300CC00C8
:102A1200220063082300CB00220062082300CA00C0
:102A22009D31E625943123004B082400DA0023006F
:102A32004A082400D90023003A082200A0002300FB
:102A42003B082200A100A201A30100308831D72057
:102A5200943122002308B5002208B4002108B300F3
:102A62002008B2004030B1002030B0000030AF008A
:102A72000030AE008D31C52594312200310823008B
:102A8200D900220030082300D80022002F0823009A
:102A9200D70022002E082300D60059082200B500D4
:102AA200230058082200B400230057082200B30074
:102AB200230056082200B2004530B1009C30B0001D
:102AC2004030AF000030AE008D31C5259431220078
:102AD2003108CF003008CE002F08CD002E08CC00E0
:102AE2004530CB008030CA000030C9000030C80039
:102AF20092317E22943122004B08E9004A08E80014
:102B02004908E7004808E6003F30E5000030E400ED
:102B12000030E3000030E200843166249431220068
:102B220065082300D500220064082300D400220097
:102B320063082300D300220062082300D200550854
:102B42002200CF00230054082200CE0023005308A5
:102B52002200CD00230052082200CC004530CB00D9
:102B62006130CA000030C9000030C80092317E22B4
:102B7200943122004B08E5004A08E4004908E300CA
:102B82004808E200230033082200E900230032084B
:102B92002200E800230031082200E7002300300869
:102BA2002200E60084316624943122006508230065
:102BB200B300220064082300B2002200630823004D
:102BC200B100220062082300B0003308CD003208B1
:102BD200CC003108CB003008CA009D31E625943183
:102BE20023004B082400DE0023004A082400DD00F5
:102BF20002303806031DFE2DFF2D0E2E23003D0848
:102C02003902031D062E3C0838020318092E0A2E2B
:102C12000E2E3D08B9003C08B800080020005D08EF
:102C2200BB005C08BA005B08B9005A08B800590832
:102C3200B7005808B6005708B5005608B4009C31D2
:102C42000124963120003708E1003608E0003508FB
:102C5200DF003408DE006108BB006008BA005F08CC
:102C6200B9005E08B800210051082000B700210019
:102C720050082000B60021004F082000B5002100B6
:102C82004E082000B4009C31012496312000370800
:102C9200C3003608C2003508C1003408C000230052
:102CA20027082000BF00230026082000BE002300C2
:102CB20025082000BD00230024082000BC008B3121
:102CC2008A23963120003F08E5003E08E4003D08D3
:102CD200E3003C08E2006508A3006408A200630860
:102CE200A1006208A000230023082000A7002300FF
:102CF20022082000A600230021082000A5002300AE
:102D020020082000A4008931822196312000230866
:102D12002300A300200022082300A2002000210893
:102D22002300A100200020082300A0002000590851
:102D3200B7005808B6005708B5005608B4005D0839
:102D4200BB005C08BA005B08B9005A08B8009C31A5
:102D520001249631200037082100D10020003608D6
:102D62002100D000200035082100CF0020003408C7
:102D72002100CE004430F3007A30F2000030F1003E
:102D82000030F0005108F7005008F6004F08F50037
:102D92004E08F4009E31E52696310318D12ED22E2C
:102DA200DB2E44302100D1007A30D0000030CF0039
:102DB2000030CE0021005108F3005008F2004F0805
:102DC200F1004E08F000C430F7007A30F60000300F
:102DD200F5000030F4009E31E52696310318F22EFC
:102DE200F32EFC2EC4302100D1007A30D000003006
:102DF200CF000030CE0023002B082000C3002300A8
:102E02002A082000C200230029082000C100230054
:102E120028082000C000210051082000BF00210026
:102E220050082000BE0021004F082000BD002100F4
:102E32004E082000BC008B318A23963120003F08C7
:102E4200A3003E08A2003D08A1003C08A00021000A
:102E520055082000A700210054082000A6002100E8
:102E620053082000A500210052082000A400893147
:102E720082219631200023082100D500200022085B
:102E82002100D400200021082100D30020002008C6
:102E92002100D20051082000C30021005008200068
:102EA200C20021004F082000C10021004E0820006E
:102EB200C00023002F082000BF0023002E0820009E
:102EC200BE0023002D082000BD0023002C08200096
:102ED200BC008B318A23963120003F08A7003E08B0
:102EE200A6003D08A5003C08A400210055082000CA
:102EF200A300210054082000A20021005308200052
:102F0200A100210052082000A000893182219631BF
:102F120020002308E9002208E8002108E700200831
:102F2200E6006908A3006808A2006708A100660815
:102F3200A000230023082000A7002300220820006D
:102F4200A600230021082000A5002300200820005D
:102F5200A400893182219631200023082300A30096
:102F6200200022082300A200200021082300A10043
:102F7200200020082300A0002308F3002208F2000A
:102F82002108F1002008F0004330F7009630F600E7
:102F92000030F5000030F4009E31E5269631031C26
:102FA200D32FD42FDE2F43302300A3009630A2006C
:102FB2000030A1000030A000FF2F4230F300483063
:102FC200F2000030F1000030F00023002308F70087
:102FD2002208F6002108F5002008F4009E31E526BB
:102FE2009631031CF52FF62FFF2F42302300A3004A
:102FF2004830A2000030A1000030A0000800543484
:1030020049344D3449344E3447345F3445345234B4
:1030120052344F34523400344F34453452345234E3
:0E3022005F344534523452344F34523400344B
:10358A000034043401340134640080010131890BB0
:10359A00CA2A0034FE0012001E00FE0BD02A003494
:1035AA000A34D73423343B34F434FD3454343C34B1
:1035BA00F0002000111EE22AE32ADE2A7008230006
:1035CA009A000800F0002000111EEC2AED2AE82AD1
:1035DA00700823009A0008002200A0002000111E93
:1035EA00F72AF82AF32A2200200823009A00080062
:1035FA00F30073089A31E7229A3171089A31E72267
:10360A009A3172089A31E7229A3108006F341234DB
:10361A0083343A34A6349B34C4343B340A34D73422
:10362A00A3343C346F34123403343A34FA34ED346C
:10363A00EB343A340134F3002E2B710886007208F9
:10364A00870001089A31E7229B310130F1070030E7
:10365A00F23D0130F302730A031D342B352B222B62
:10366A000800392B230019082000911A3D2B3E2B04
:10367A00372B21009116111211140B178B170030DA
:10368A00EB000430EC002000111018140800592B2C
:10369A00710884007208850000089A31DD229B3186
:1036AA000130F1070030F23D71088400720885008C
:1036BA001200031D612B622B4D2B08002200A30070
:1036CA00732B210886002208870001089A31F1220B
:1036DA009B3101302200A1070030A23D0130A30234
:1036EA00230A031D792B7A2B662B08007108803A6E
:1036FA00F20080307202031D842B0130700203181D
:10370A00872B882B942B7009F2007109F300F20AB7
:10371A000319F30A7208F0007308F100942B0800E9
:10372A0021006B086C04031D9B2B9C2BAA2B2300E6
:10373A00EF01EF0A00302100EB000430EC00013009
:10374A002300B6070030B73DAE2B0130EB02003044
:10375A00EC3B0800F300C22B710886000230870098
:10376A00700884008501000881000130F2007208A7
:10377A00F0070130F2007208F1070130F302730A10
:10378A00031DC82BC92BB12B080023002308CD0029
:10379A002208CC002108CB002008CA009D31E6256A
:1037AA009B3123004B08D3004A08D200520830004C
:1037BA00A3002300530801393000A40011170800A0
:1037CA00F20023009D1CEA2BEB2BF92B1D121D1670
:1037DA00F92B7008860087018731EF279B3181001A
:1037EA000130F1007108F0070130F202720A031D7C
:1037FA00FF2B002CEE2B080080302000B7063B0878
:10380A00A3003A08A2003908A1003808A000370826
:10381A00A7003608A6003508A5003408A400893197
:10382A0082219C3120002308B7002208B600210813
:10383A00B5002008B4000800F50075087007F60006
:10384A00F701F70D372C7108860072088700010806
:10385A00F300F4017308F6077408F73D0130F10725
:10386A000030F23D0130F002700A031D3D2C3E2C5F
:10387A00282C7708F1007608F000080023002308B6
:10388A002100A300230022082100A200230021080E
:10389A002100A100230020082100A0009D317525E8
:1038AA009C3121002108AB002008AA002A08300018
:1038BA00A30021002B0801393000A40011170800C9
:1038CA00F800F401F5017008F200F3017208F6003D
:1038DA007308F700781C722C732C772C7608F4077F
:1038EA007708F53D0130F635F70D890B782C031072
:1038FA00F80C7808031D822C832C6F2C7508F100B4
:10390A007408F00008002200A800A401A5012008FC
:10391A00A200A3012208A6002308A700281C962CAF
:10392A00972C9B2C2608A4072708A53D0130A6350D
:10393A00A70D890B9C2C0310A80C2808031DA62C84
:10394A00A72C932C2508A1002408A0000800210018
:10395A00ED01ED0A0030D5000030D4000030D3006C
:10396A000030D20000302300B3000030B200003033
:10397A00B1000030B000B801B9014230A3004830AC
:10398A00A2000030A1000030A0009C3143249C31E9
:10399A00903133209C3168302100AC00E430890B2F
:1039AA00D42CAC0BD42C00002300B601B7012100A3
:1039BA00E601E60A08008631A3269C316830230016
:1039CA00DA00E430890BE72CDA0BE72C00009B3194
:1039DA0036239C3123006F080319F42CF52CEF2CA5
:1039EA00943128249C318731B2279C312400380332
:1039FA00031D002D012D152D23003D08D3003C0881
:103A0A00D20024003A082300D500240039082300F4
:103A1A00D40021006D082300D6009F316F279C3106
:103A2A002300EF01EF2C80317A2821006D08031D55
:103A3A001F2D202D472D6008F0006108F100F201CA
:103A4A00F301003088312D209D3173082000D90000
:103A5A007208D8007108D7007008D6002400370809
:103A6A002000DD00240036082000DC002400350890
:103A7A002000DB00240034082000DA0096310F26EB
:103A8A009D31712D5E08F0005F08F100F201F3012B
:103A9A00003088312D209D3173082000D90072082A
:103AAA00D8007108D7007008D60021005C08F00021
:103ABA005D08F100F201F301003088312D209D31BB
:103ACA0073082000DD007208DC007108DB00700852
:103ADA00DA0096310F269D319C3143249D3108002E
:103AEA0003102100220D230DA9002908031D7E2D94
:103AFA007F2D882D0030A3000030A2000030A100E5
:103B0A000030A000E52D2008A4002108A500220805
:103B1A00A6002308A7001F30A736A60CA50CA40CE4
:103B2A00890B912D2408A800A217FF30A005FF30A9
:103B3A00A105FF30A2050030A3059630A902A91FEE
:103B4A00A72DA82DC02D2908803A973E0318AE2D1F
:103B5A00AF2DB02D7F2D0130A336A20CA10CA00CE5
:103B6A00890BB12D0130A4002408A907031DBE2D1D
:103B7A00BF2DB02DD52D20302902031CC52DC62DF1
:103B8A00D02D7F2D0130A035A10DA20DA30D890BDB
:103B9A00C82D0130A9022908031DD42DD52DC72D02
:103BAA0028080319D92DDA2DE52DA009A109A209A2
:103BBA00A309A00A0319A10A0319A20A0319A30A4D
:103BCA000800031023004C0D4D0D2200EF006F0872
:103BDA00031DF02DF12DFB2D00302300CD00003008
:103BEA00CC000030CB000030CA00612E23004A0806
:103BFA00CE004B08CF004C08D0004D08D1001F3032
:103C0A00D136D00CCF0CCE0C890B052E4E082200D3
:103C1A00EE002300CC17FF30CA05FF30CB05FF307A
:103C2A00CC050030CD0596302200EF02EF1F1E2E84
:103C3A001F2E392E6F08803A973E0318252E262EFE
:103C4A00272EF12D01302300CD36CC0CCB0CCA0C1B
:103C5A00890B282E0130CE004E082200EF07031DE3
:103C6A00372E382E272E502E20306F02031C3E2E60
:103C7A003F2E4B2EF12D01302300CA35CB0DCC0D32
:103C8A00CD0D890B412E01302200EF026F08031D72
:103C9A004F2E502E402E6E080319542E552E612E8B
:103CAA002300CA09CB09CC09CD09CA0A0319CB0AD0
:103CBA000319CC0A0319CD0A0800D12E5E08D600D2
:103CCA005F08D700D8016008D9006108DA00DB0173
:103CDA00E42E5608F0005708F1005808F20009309F
:103CEA00F236F10CF00C890B752E01307005F300D9
:103CFA0000307105F4005608F5005708F600580818
:103D0A00F7000A30F736F60CF50C890B872E730884
:103D1A0075072300BA007408763DBB0021005908D4
:103D2A00F0005A08F1005B08F2000930F236F10C93
:103D3A00F00C890B9B2E01307005F30000307105E1
:103D4A00F4005908F5005A08F6005B08F7000A3033
:103D5A00F736F60CF50C890BAD2E730875072300A0
:103D6A00BC007408763DBD00E42E5E08F0005F08D2
:103D7A00F100F2017008D6077108D73D7208D83DE4
:103D8A006008F0006108F100F2017008D9077108B3
:103D9A00DA3D7208DB3DE42E21006C08003A031973
:103DAA00DA2E043A0319DF2EBA2E6B08003A0319E9
:103DBA006E2EBA2E6B08003A0319632EBA2E08002B
:103DCA0000307005F80000307105F9008030720586
:103DDA00FA007F307305FB007B087A0479047804C3
:103DEA00031DF82EF92E012F0030F3000030F200E7
:103DFA000030F1000030F00000307405F8000030A7
:103E0A007505F90080307605FA007F307705FB00EA
:103E1A007B087A0479047804031D142F152F1D2FAB
:103E2A000030F7000030F6000030F5000030F400F2
:103E3A00F31F202F212F392F0030F8000030F9000E
:103E4A000030FA008030FB007008F8027108F93B74
:103E5A007208FA3B7308FB3B7B08F3007A08F2000E
:103E6A007908F1007808F000F71F3C2F3D2F552FF5
:103E7A000030F8000030F9000030FA008030FB0012
:103E8A007408F8027508F93B7608FA3B7708FB3B99
:103E9A007B08F7007A08F6007908F5007808F4003C
:103EAA008030F3068030F70677087302031D672F08
:103EBA0076087202031D672F75087102031D672FAA
:103ECA007408700203186A2F6B2F6D2F03106E2F60
:103EDA0003140800230052082200A00023005308FC
:103EEA002200A100A201A30100308831D7209F310E
:103EFA0022002308B5002208B4002108B3002008D4
:103F0A00B2004530B1009C30B0004030AF00003004
:103F1A00AE008D31C5259F3122003108CF0030080F
:103F2A00CE002F08CD002E08CC004530CB008030C3
:103F3A00CA000030C9000030C80092317E229F3189
:103F4A0022004B08E9004A08E8004908E700480847
:103F5A00E6003F30E5000030E4000030E3000030C6
:103F6A00E200843166249F31220065082300CD00D7
:103F7A00220064082300CC00220063082300CB003F
:103F8A00220062082300CA009D31E6259F312300E2
:103F9A004B085502031DD32F4A0854020318D62F83
:103FAA00D72FFF2F56080319DB2FDC2FFF2F0030E6
:103FBA002100D5000030D4000030D3000030D200F8
:103FCA00ED0123006E08AF006D08AE006C08AD006D
:103FDA006B08AC006A08AB006908AA006808A90067
:103FEA006708A8006608A7006508A6006408A50077
:063FFA006308A4000800AA
:020000040001F9
:08000000FF3FFF3FFF3FFF3F00
:04000E00E431FF1EBC
:00000001FF
