:0400000080317A28A9
:100008007E1480312000911E0A280B282128911285
:1000180023009D1C102811281B281D121D160D30A9
:10002800F1009830F2009D31DB258031212895318F
:10003800182580319D31902580312000111C2528FC
:1000480026287828E13097008330960011100A306E
:10005800F0000030F1009F319827803171082100AD
:10006800E0007008DF000C30F0000030F1009F3134
:100078009827803171082100DE007008DD0000300B
:10008800C5000830C6005D084502F0005E08463B22
:10009800F1009E310B26803171082100DE007008C6
:1000A800DD006708031959285A285E28903148202E
:1000B800803166280030CE000030CD000030CC0002
:1000C8000030CB009131902180319E31252680313E
:1000D8002000111C7028712878280030F100983011
:1000E800F2009D31DB2580317E10090080317C28AB
:1000F8006E3084009D308500EA308600003087002D
:1001080004309D31782580319A3084009D308500F7
:10011800DA3086000130870015309D31782580312E
:100128007E3084009D3085002830860002308700AC
:1001380008309D3178258031C73084000030850033
:1001480023309D3172258031A03084000130850034
:1001580021309D31722580312030840002308500A5
:1001680008309D31722580317E1020009031112891
:10017800220065088039EA006535EC00E41FC528CF
:10018800C628C7286C146C080319CB28CC28DC288F
:100198006C0A031DD028D128D9280030E50000308A
:1001A800E4000030E3000030E200E417E501E42851
:1001B8000030E5000030E4000030E3000030E200E9
:1001C80069088039EB006B086A060319EC28ED28EA
:1001D800EE286A176935EB00E81FF328F428F5289C
:1001E8006B146B080319F928FA280A296B0A031DEE
:1001F800FE28FF2807290030E9000030E800003019
:10020800E7000030E600E817E90112290030E900AC
:100218000030E8000030E7000030E6006C086B02B0
:1002280003181729182940296A1F1B291C29222964
:1002380080302300C10041082200EA066C08ED0066
:100248006B08EC006D08EB006208ED006608E20040
:100258006D08E6006308ED006708E3006D08E70035
:100268006408ED006808E4006D08E8006508ED0022
:100278006908E5006D08E900ED016B082300C1007D
:10028800C2014208C40022006C0823004102C300D6
:10029800031CC4034408803AC50080304502031D8E
:1002A80057291A304302031C5A295B299129220035
:1002B8006508640463046204031D63296529013029
:1002C80066290030ED000030E5000030E400003021
:1002D800E3000030E2006B08EC0098296D1C7529DA
:1002E80076297A296D360138ED007C290310ED0C4A
:1002F800621C7F2980298129ED1701302300C10064
:100308002200E537E40CE30CE20C2300C10B84293E
:100318000130C10041082200EC0722006B086C0282
:10032800031C9729982972296A1B9B299C29D6297D
:100338006C08031DA029A129AA290030E500003076
:10034800E4000030E3000030E200F82A6608E20723
:100358006708E33D6808E43D6908E53D651CB52983
:10036800B629782A6D1CB929BA29BE296D360138F3
:10037800ED00C0290310ED0C621CC329C429C5294E
:10038800ED1701302300C1002200E537E40CE30C2F
:10039800E20C2300C10BC8290130C100410822002A
:1003A800EC07782A6508803A2300C1002200690812
:1003B800803A230041022200031DEC2968086402E8
:1003C800031DEC2967086302031DEC296608620215
:1003D8000318EF29F0293A2AFF302300C100FF3023
:1003E800C200FF30C300FF30C4002200620866026A
:1003F8002300C50022006308673B2300C6002200D3
:100408006408683B2300C70022006508693B230095
:10041800C8004508C1074608C23D4708C33D48080B
:10042800C43D44082200E500230043082200E400FC
:10043800230042082200E300230041082200E200D2
:1004480080302300C10041082200EA06ED09ED0AC8
:100458006D08031D302A312A422A0130E207003094
:10046800E33D0030E43D0030E53D422A6608E20203
:100478006708E33B6808E43B6908E53B65086404F2
:1004880063046204031D492A4A2A742A6D08031D5D
:100498004E2A4F2A742A0030E5000030E40000306C
:1004A800E3000030E200F82A0130E235E30DE40D04
:1004B800E50D890B592AED1F622A632A642A621402
:1004C8006D1C672A682A6B2A0314ED0D6D2A031028
:1004D800ED0D6C080319712A722A742A0130EC0296
:1004E800E41F772A782A582AEB01ED1F7C2A7D2AF7
:1004F8008B2A6D087F390319822A832A862AEB0101
:10050800EB0A8B2A621C892A8A2A8B2A832A6B087F
:1005180003198F2A902ACD2A0130E2070030E33DE3
:100528000030E43D0030E53D651C9B2A9C2ACD2A1D
:1005380062082300C100220063082300C2002200D1
:1005480064082300C300220065082300C4000130AA
:10055800C500C437C30CC20CC10CC50BAD2A440876
:100568002200E500230043082200E400230042089B
:100578002200E300230041082200E2006C0A03196C
:10058800C62AC72ACD2A01302300C100410822000B
:10059800EC076C0A0319D12AD22AD72A6C08031D42
:1005A800D62AD72AE52A0030E5000030E4000030DA
:1005B800E3000030E2006C08031DE32AE42AE52A80
:1005C800EA016C1CE82AE92AEB2AE417F12A7F30B1
:1005D8002300C10041082200E4056C36E500EA1F4B
:1005E800F62AF72AF82AE517080022003108803988
:1005F800BB003135C100B01F022B032B042B411463
:1006080041080319082B092B182B410A031D0D2B30
:100618000E2B162B0030B1000030B0000030AF00B8
:100628000030AE00B017202B0030B1000030B00011
:100638000030AF000030AE0035088039B60036080B
:10064800BB063535BC00B41F2A2B2B2B2C2B3C1496
:100658003C080319302B312B402B3C0A031D352B4A
:10066800362B3E2B0030B5000030B4000030B3000C
:100678000030B200B417482B0030B5000030B40089
:100688000030B3000030B2003C0803194C2B4D2B4E
:10069800522B4108031D512B522B5B2B0030B1000C
:1006A8000030B0000030AF000030AE00332D2E080F
:1006B800A00034089E31BF26823122002108C700DD
:1006C8002008C6004608B600B701B801B9013908C4
:1006D800C0003808BF003708BE003608BD0047080C
:1006E800B600B701B801B9013908C5003808C40017
:1006F8003708C3003608C2002F08A00033089E310F
:10070800BF26823122002108C7002008C6004608FB
:10071800B600B701B801B9013608BD073708BE3DB4
:100728003808BF3D3908C03D4708B600B701B801D1
:10073800B9013608C2073708C33D3808C43D39082F
:10074800C53D3008A00032089E31BF268231220004
:100758002108C7002008C6004608B600B701B8013E
:10076800B9013608BD073708BE3D3808BF3D39080E
:10077800C03D4708B600B701B801B9013608C2073D
:100788003708C33D3808C43D3908C53D0830BD3574
:10079800BE0DBF0DC00D890BCB2B2F08A000320852
:1007A8009E31BF26823122002108C7002008C600DA
:1007B8004608BD074708BE3D0030BF3DC03D2E0876
:1007C800A00033089E31BF26823122002108C700CD
:1007D8002008C6004608BD074708BE3D0030BF3D9B
:1007E800C03D0830BD35BE0DBF0DC00D890BF62BC1
:1007F8002E08A00032089E31BF268231220021082F
:10080800C7002008C6004608BD074708BE3D00309F
:10081800BF3DC03D2F08A00034089E31BF2682315D
:1008280022002108C7002008C6004608C20747085A
:10083800C33D0030C43DC53D3008A00033089E319B
:10084800BF26823122002108C7002008C6004608BA
:10085800C2074708C33D0030C43DC53D3008A0006D
:1008680034089E31BF26823122002108C7002008A3
:10087800C6004608B6004708B700B801B9010830F5
:10088800B635B70DB80DB90D890B442C3608C2071B
:100898003708C33D3808C43D3908C53D3D08B60092
:1008A8003E08B7003F08B8004008B9001830B9360C
:1008B800B80CB70CB60C890B5B2C3608C207370886
:1008C800C33D3808C43D3908C53D0830BD35BE0DA7
:1008D800BF0DC00D890B6A2C41083C07B600B70153
:1008E800B70D3608823EC600FF30373DC700932C4F
:1008F8000130C235C30DC40DC50D890B7D2CC01F39
:10090800862C872C882C42140130BD35BE0DBF0DB6
:10091800C00D890B892CFF30C607FF30C73DC41FA7
:10092800962C972C7C2CBC01C01F9B2C9C2CB82C83
:10093800FF303D05B600FF303E05B700FF303F05EC
:10094800B8007F304005B900390838043704360448
:100958000319AF2CB02CB32CBC01BC0AB82C421C18
:10096800B62CB72CB82CB02C3C080319BC2CBD2CC9
:10097800E52C0130C2070030C33D0030C43D0030D3
:10098800C53D451CC82CC92CE52C4208B6004308B7
:10099800B7004408B8004508B9000130BA00B937B3
:1009A800B80CB70CB60CBA0BD32C3908C5003808EC
:1009B800C4003708C3003608C2000130C60700303B
:1009C800C73D4708803AB60080303602031DEE2C3A
:1009D800FF304602031CF12CF22CFC2C7F30220045
:1009E800C5008030C4000030C3000030C200272D8D
:1009F80022004708803AB60080303602031D062DD3
:100A0800013046020318092D0A2D152D0030220049
:100A1800C5000030C4000030C3000030C200BB0174
:100A2800272D22004608C100FF30C205FF30C3054C
:100A38007F30C4050030C505411C232D242D252DEC
:100A4800C4174136C5003B08B6003608C50445083A
:100A5800B1004408B0004308AF004208AE000800E7
:100A680020003F088039C9003F35CF00BE1F3D2D0B
:100A78003E2D3F2D4F144F080319432D442D532D60
:100A88004F0A031D482D492D512D0030BF0000305D
:100A9800BE000030BD000030BC00BE175B2D00302A
:100AA800BF000030BE000030BD000030BC0043086D
:100AB8008039C4004408C9064335CE00C21F652DDD
:100AC800662D672D4E144E0803196B2D6C2D7B2D4A
:100AD8004E0A031D702D712D792D0030C300003092
:100AE800C2000030C1000030C000C217832D0030A2
:100AF800C3000030C2000030C1000030C0004E0802
:100B08000319872D882D8D2D4F08031D8C2D8D2DB4
:100B1800962D0030BF000030BE000030BD00003010
:100B2800BC006E2F3C08F00042089E319C2685319F
:100B380071082000D5007008D4005408C400C5010D
:100B4800C601C7014708CD004608CC004508CB00C0
:100B58004408CA005508C400C501C601C7014708B2
:100B6800D3004608D2004508D1004408D0003D080B
:100B7800F00041089E319C26853171082000D5007F
:100B88007008D4005408C400C501C601C701440850
:100B9800CA074508CB3D4608CC3D4708CD3D55081A
:100BA800C400C501C601C7014408D0074508D13DA6
:100BB8004608D23D4708D33D3E08F00040089E3124
:100BC8009C26853171082000D5007008D40054088F
:100BD800C400C501C601C7014408CA074508CB3D82
:100BE8004608CC3D4708CD3D5508C400C501C6019F
:100BF800C7014408D0074508D13D4608D23D4708FB
:100C0800D33D0830CA35CB0DCC0DCD0D890B062E42
:100C18003D08F00040089E319C268531710820006F
:100C2800D5007008D4005408CA075508CB3D0030D9
:100C3800CC3DCD3D3C08F00041089E319C268531D5
:100C480071082000D5007008D4005408CA07550858
:100C5800CB3D0030CC3DCD3D0830CA35CB0DCC0D59
:100C6800CD0D890B312E3C08F00040089E319C26A2
:100C7800853171082000D5007008D4005408CA07CF
:100C88005508CB3D0030CC3DCD3D3D08F000420835
:100C98009E319C26853171082000D5007008D4004B
:100CA8005408D0075508D13D0030D23DD33D3E0809
:100CB800F00041089E319C26853171082000D5003E
:100CC8007008D4005408D0075508D13D0030D23DF3
:100CD800D33D3E08F00042089E319C2685317108BC
:100CE8002000D5007008D4005408C4005508C50079
:100CF800C601C7010830C435C50DC60DC70D890B1F
:100D08007F2E4408D0074508D13D4608D23D470804
:100D1800D33D4A08C4004B08C5004C08C6004D081E
:100D2800C7001830C736C60CC50CC40C890B962EE4
:100D38004408D0074508D13D4608D23D4708D33D71
:100D48000830CA35CB0DCC0DCD0D890BA52E4F081B
:100D58004E07C400C501C50D4408823ED400FF30CB
:100D6800453DD500CE2E0130D035D10DD20DD30D55
:100D7800890BB82ECD1FC12EC22EC32E50140130A0
:100D8800CA35CB0DCC0DCD0D890BC42EFF30D40741
:100D9800FF30D53DD21FD12ED22EB72ECE01CD1F7A
:100DA800D62ED72EF32EFF304A05C400FF304B0550
:100DB800C500FF304C05C6007F304D05C700470809
:100DC8004604450444040319EA2EEB2EEE2ECE0108
:100DD800CE0AF32E501CF12EF22EF32EEB2E4E08D7
:100DE8000319F72EF82E202F0130D0070030D13DFF
:100DF8000030D23D0030D33D531C032F042F202F49
:100E08005008C4005108C5005208C6005308C7005E
:100E18000130C800C737C60CC50CC40CC80B0E2F50
:100E28004708D3004608D2004508D1004408D0003E
:100E38000130D4070030D53D5508803AC4008030D1
:100E48004402031D292FFF305402031C2C2F2D2F81
:100E5800372F7F302000D3008030D2000030D100FF
:100E68000030D000622F20005508803AC40080303E
:100E78004402031D412F013054020318442F452F0B
:100E8800502F00302000D3000030D2000030D100B5
:100E98000030D000C901622F20005408CF00FF3075
:100EA800D005FF30D1057F30D2050030D3054F1C67
:100EB8005E2F5F2F602FD2174F36D3004908C4002A
:100EC8004408D3045308BF005208BE005108BD00AF
:100ED8005008BC000800230051082200A00023008D
:100EE80052082200A100A201A301003093315E2321
:100EF800873122002308B5002208B4002108B30076
:100F08002008B2004530B1009C30B0004030AF003E
:100F18000030AE008231F922873122003108CF003B
:100F28003008CE002F08CD002E08CC004530CB006D
:100F38008030CA000030C9000030C80088318B20DA
:100F4800873122004B08E9004A08E8004908E70011
:100F58004808E6003F30E5000030E4000030E300D8
:100F68000030E2008031BC20873122006508230070
:100F7800CC00220064082300CB0022006308230071
:100F8800CA00220062082300C90091311421873168
:100F980023004A085402031DD32F4908530203189B
:100FA800D62FD72FFF2F55080319DB2FDC2FFF2F44
:100FB80000302100CE000030CD000030CC000030E1
:100FC800CB00EC013A302300B300EB30B200ED3037
:100FD800B100FA30B0003A30AF000330AE00123042
:100FE800AD006F30AC003C30AB00A330AA00D73066
:080FF800A9000A30A80008005E
:1010020000307005F80000307105F900803072057B
:10101200FA007F307305FB007B087A0479047804B8
:10102200031D142815281D280030F3000030F2009B
:101032000030F1000030F00000307405F80000309C
:101042007505F90080307605FA007F307705FB00E0
:101052007B087A0479047804031D30283128392862
:101062000030F7000030F6000030F5000030F400E8
:10107200F31F3C283D2855280030F8000030F900C5
:101082000030FA008030FB007008F8027108F93B6A
:101092007208FA3B7308FB3B7B08F3007A08F20004
:1010A2007908F1007808F000F71F582859287128AC
:1010B2000030F8000030F9000030FA008030FB0008
:1010C2007408F8027508F93B7608FA3B7708FB3B8F
:1010D2007B08F7007A08F6007908F5007808F40032
:1010E2008030F3068030F70677087302031D8328E9
:1010F20076087202031D832875087102031D832876
:1011020074087002031886288728892803108A2801
:101112000314080022004F088039D9004F35E0003F
:10112200CE1F9428952896286014600803199A28DF
:101132009B28AB28600A031D9F28A028A8280030FE
:10114200CF000030CE000030CD000030CC00CE17F2
:10115200CF01B3280030CF000030CE000030CD00E8
:101162000030CC004B088039D0005008D9064B35EE
:10117200E100CA1FBD28BE28BF28611461080319F7
:10118200C328C428D428610A031DC828C928D12825
:101192000030CB000030CA000030C9000030C80067
:1011A200CA17CB01DC280030CB000030CA00003067
:1011B200C9000030C8004B084A0449044804031D12
:1011C200E328E428FD280030CF000030CE000030B4
:1011D200CD000030CC008030CE047F30CF045908DF
:1011E200D0005008CF044F08CB004E08CA004D086B
:1011F200C9004C08C800342A6008031D01290229CD
:101202000B290030CB000030CA000030C90000308A
:10121200C800342A6008D000D1015108D300610807
:101222005002D200031CD30352087F3EDA00003082
:10123200533DDB004F08D8004E08D7004D08D600BA
:101242004C08D5000030CF000030CE000030CD0079
:101252000030CC000030DF000030DE000030DD0066
:101262000030DC00E10173296108031939293A29A8
:1012720054290130D535D60DD70DD80D890B3B2910
:101282000130CC35CD0DCE0DCF0D890B4229DF1F9C
:101292004B294C294D294C140130DC35DD0DDE0D76
:1012A200DF0D890B4E294B085802031D62294A089B
:1012B2005702031D622949085602031D6229480884
:1012C2005502031C652966296F295F174808D50254
:1012D2004908D63B4A08D73B4B08D83B0130D000DF
:1012E2005008E1071A306102031C7829792935294F
:1012F20058085704560455040319802981299A294C
:101302005C149A290130CC35CD0DCE0DCF0D890B51
:101312008429DF1F8D298E298F294C140130DC3559
:10132200DD0DDE0DDF0D890B9029FF30DA07FF306E
:10133200DB3DCE1F9D299E298329E101DF1FA229C2
:10134200A329BF29FF305C05D000FF305D05D10025
:10135200FF305E05D2007F305F05D3005308520490
:10136200510450040319B629B729BA29E101E10A47
:10137200BF294C1CBD29BE29BF29B7296108031901
:10138200C329C429EC290130CC070030CD3D0030FF
:10139200CE3D0030CF3D4F1CCF29D029EC294C083F
:1013A200D0004D08D1004E08D2004F08D3000130C2
:1013B200D400D337D20CD10CD00CD40BDA29530879
:1013C200CF005208CE005108CD005008CC000130A9
:1013D200DA070030DB3D5B08803AD00080305002F3
:1013E200031DF529FF305A02031CF829F929062AA0
:1013F200FF302200DA000030DB000030CF00003086
:10140200CE000030CD000030CC0022005B08803AD4
:10141200D00080305002031D102A01305A020318F6
:10142200132A142A202A2200DA01DB010030CF001D
:101432000030CE000030CD000030CC00D9012200B7
:101442005A08E000601C262A272A292ACE172D2AAC
:101452007F30D0005008CE056036CF005908D0004A
:101462005008CF04F428080023003C082200A00002
:1014720023003D082200A100A201A3010030933104
:101482005E238A3122002308B5002208B400210815
:10149200B3002008B2004030B1002030B00000306C
:1014A200AF000030AE008231F9228A3122003108C9
:1014B2002300D800220030082300D70022002F0882
:1014C2002300D60022002E082300D500580822004F
:1014D200B500230057082200B4002300560822005A
:1014E200B300230055082200B2004530B1009C3001
:1014F200B0004030AF000030AE008231F9228A31B4
:1015020022003108CF003008CE002F08CD002E086F
:10151200CC004530CB008030CA000030C90000301A
:10152200C80088318B208A3122004B08E9004A0822
:10153200E8004908E7004808E6003F30E5000030CF
:10154200E4000030E3000030E2008031BC208A3148
:10155200220065082300CC00220064082300CB008F
:10156200220063082300CA00220062082300C90087
:10157200913114218A3123004A082400A300230058
:1015820049082400A20023003E082200A0002300F4
:101592003F082200A100A201A301003093315E2383
:1015A2008A3122002308B5002208B4002108B300C2
:1015B2002008B2004530B1009C30B0004030AF008E
:1015C2000030AE008231F9228A3122003108CF0088
:1015D2003008CE002F08CD002E08CC004530CB00BD
:1015E2008030CA000030C9000030C80088318B202A
:1015F2008A3122004B08E9004A08E8004908E7005E
:101602004808E6003F30E5000030E4000030E30027
:101612000030E2008031BC208A31220065082300BC
:10162200CC00220064082300CB00220063082300C0
:10163200CA00220062082300C900913114218A31B4
:1016420023004A082400A100230049082400A00026
:1016520023003C082200A00023003D082200A10034
:10166200A201A301003093315E238A3122002308B4
:10167200B5002208B4002108B3002008B2004030AF
:10168200B1002030B0000030AF000030AE00823137
:10169200F9228A31220031082300D80022003008C2
:1016A2002300D70022002F082300D60022002E0894
:1016B2002300D50058082200B50023005708220055
:1016C200B400230056082200B3002300550822006C
:1016D200B2004530B1009C30B0004030AF00003065
:1016E200AE008231F9228A3122003108CF0030085F
:1016F200CE002F08CD002E08CC004530CB00803024
:10170200CA000030C9000030C80088318B208A31FD
:1017120022004B08E9004A08E8004908E7004808A7
:10172200E6003F30E5000030E4000030E300003026
:10173200E2008031BC208A31220065082300D400F7
:10174200220064082300D300220063082300D20091
:10175200220062082300D10054082200CF00230097
:1017620053082200CE00230052082200CD0023009D
:1017720051082200CC004530CB006130CA00003055
:10178200C9000030C80088318B208A3122004B0802
:10179200E5004A08E4004908E3004808E2002300A3
:1017A20037082200E900230036082200E80023005F
:1017B20035082200E700230034082200E6008031C9
:1017C200BC208A31220065082300B7002200640889
:1017D2002300B600220063082300B500220062083D
:1017E2002300B4003708CC003608CB003508CA0005
:1017F2003408C900913114218A3123004A08240097
:10180200A500230049082400A400080020005D0868
:10181200BB005C08BA005B08B9005A08B800590856
:10182200B7005808B6005708B5005608B4009E31F4
:101832005A268C3120003708E1003608E0003508CE
:10184200DF003408DE006108BB006008BA005F08F0
:10185200B9005E08B80021004A082000B700210044
:1018620049082000B600210048082000B5002100E8
:1018720047082000B4009E315A268C3120003708D8
:10188200C3003608C2003508C1003408C000230076
:101892002B082000BF0023002A082000BE002300DE
:1018A20029082000BD00230028082000BC00853143
:1018B20034258C3120003F08E5003E08E4003D0855
:1018C200E3003C08E2006508A3006408A200630884
:1018D200A1006208A000230023082000A700230023
:1018E20022082000A600230021082000A5002300D2
:1018F20020082000A4008D31F8258C312000230817
:101902002300A300200022082300A20020002108B7
:101912002300A100200020082300A0002000590875
:10192200B7005808B6005708B5005608B4005D085D
:10193200BB005C08BA005B08B9005A08B8009E31C7
:101942005A268C31200037082100CA0020003608B0
:101952002100C900200035082100C80020003408F9
:101962002100C7004430F3007A30F2000030F10069
:101972000030F0004A08F7004908F6004808F50070
:101982004708F400883101208C310318C92CCA2C75
:10199200D32C44302100CA007A30C9000030C8007C
:1019A2000030C70021004A08F3004908F200480845
:1019B200F1004708F000C430F7007A30F60000303A
:1019C200F5000030F400883101208C310318EA2C34
:1019D200EB2CF42CC4302100CA007A30C90000304C
:1019E200C8000030C70023002F082000C3002300D6
:1019F2002E082000C20023002D082000C100230071
:101A02002C082000C00021004A082000BF0021004D
:101A120049082000BE00210048082000BD00210026
:101A220047082000BC00853134258C3120003F0856
:101A3200A3003E08A2003D08A1003C08A00021002E
:101A42004E082000A70021004D082000A60021001A
:101A52004C082000A50021004B082000A4008D3175
:101A6200F8258C31200023082100CE002000220816
:101A72002100CD00200021082100CC0020002008F8
:101A82002100CB004A082000C300210049082000A1
:101A9200C200210048082000C100210047082000A0
:101AA200C000230033082000BF00230032082000BA
:101AB200BE00230031082000BD00230030082000B2
:101AC200BC00853134258C3120003F08A7003E0838
:101AD200A6003D08A5003C08A40021004E082000F5
:101AE200A30021004D082000A20021004C08200084
:101AF200A10021004B082000A0008D31F8258C3177
:101B020020002308E9002208E8002108E700200855
:101B1200E6006908A3006808A2006708A100660839
:101B2200A000230023082000A70023002208200091
:101B3200A600230021082000A50023002008200081
:101B4200A4008D31F8258C31200023082300A30046
:101B5200200022082300A200200021082300A10067
:101B6200200020082300A0002308F3002208F2002E
:101B72002108F1002008F0004330F7009630F6000B
:101B82000030F5000030F400883101208C31031C54
:101B9200CB2DCC2DD62D43302300A3009630A200AE
:101BA2000030A1000030A000F72D4230F300483091
:101BB200F2000030F1000030F00023002308F700AB
:101BC2002208F6002108F5002008F40088310120DF
:101BD2008C31031CED2DEE2DF72D42302300A30096
:101BE2004830A2000030A1000030A0000800200010
:101BF20023088039B0002335B200A21F012E022E25
:101C0200032E321432080319072E082E182E320A18
:101C1200031D0C2E0D2E152E0030A3000030A20045
:101C22000030A1000030A000A217A301202E003036
:101C3200A3000030A2000030A1000030A00027085D
:101C42008039B100310830060319282E292E2A2E98
:101C520030172735B100A61F2F2E302E312E31140A
:101C620031080319352E362E462E310A031D3A2E1F
:101C72003B2E432E0030A7000030A6000030A50006
:101C82000030A400A617A7014E2E0030A700003096
:101C9200A6000030A5000030A4003208310203186B
:101CA200532E542E7A2E301F572E582E5C2E8030F3
:101CB200A8002808B0063208B3003108B200330881
:101CC200B1002008B3002408A0003308A4002108B2
:101CD200B3002508A1003308A5002208B300260896
:101CE200A2003308A6002308B3002708A300330884
:101CF200A700B3013108A800A9012908AB003208E6
:101D02002802AA00031CAB032B08803AAC008030E7
:101D12002C02031D8E2E1A302A02031C912E922EA3
:101D2200C42E20002308220421042004031D9A2E1D
:101D32009C2E01309D2E0030B3000030A3000030F5
:101D4200A2000030A1000030A0003108B200CB2E6A
:101D5200331CAC2EAD2EB12E33360138B300B32E68
:101D62000310B30C201CB62EB72EB82EB3170130B9
:101D7200A800A337A20CA10CA00CA80BBA2E01300C
:101D8200A8002808B207200031083202031CCA2E1C
:101D9200CB2EA92E301BCE2ECF2E052F3208031D9F
:101DA200D32ED42EDD2E0030A3000030A20000304E
:101DB200A1000030A000FF2F2408A0072508A13DA4
:101DC2002608A23D2708A33D231CE82EE92E912FC9
:101DD200331CEC2EED2EF12E33360138B300F32EE8
:101DE2000310B30C201CF62EF72EF82EB317013079
:101DF200A800A337A20CA10CA00CA80BFA2E01304C
:101E0200A8002808B207912F2308803AA8002708C3
:101E1200803A2802031D172F26082202031D172FBE
:101E220025082102031D172F2408200203181A2F48
:101E32001B2F532FFF30A800FF30A900FF30AA004C
:101E4200FF30AB0020082402AC002108253BAD0086
:101E52002208263BAE002308273BAF002C08A80728
:101E62002D08A93D2E08AA3D2F08AB3D2B08A30043
:101E72002A08A2002908A1002808A0008030A80092
:101E82002808B006B309B30A3308031D492F4A2FA5
:101E92005B2F0130A0070030A13D0030A23D003091
:101EA200A33D5B2F2408A0022508A13B2608A23BE4
:101EB2002708A33B2308220421042004031D622FC8
:101EC200632F8D2F3308031D672F682F8D2F00304E
:101ED200A3000030A2000030A1000030A000FF2FBC
:101EE2000130A035A10DA20DA30D890B722FB31FD6
:101EF2007B2F7C2F7D2F2014331C802F812F842F4A
:101F02000314B30D862F0310B30D320803198A2F61
:101F12008B2F8D2F0130B202A21F902F912F712F84
:101F2200B101B31F952F962FA42F33087F390319C0
:101F32009B2F9C2F9F2FB101B10AA42F201CA22FEF
:101F4200A32FA42F9C2F31080319A82FA92FD62F16
:101F52000130A0070030A13D0030A23D0030A33D7A
:101F6200231CB42FB52FD62F2008A8002108A900C2
:101F72002208AA002308AB000130AC00AB37AA0C40
:101F8200A90CA80CAC0BBF2F2B08A3002A08A20097
:101F92002908A1002808A000320A0319D12FD22F44
:101FA200D62F0130A8002808B207320A0319DA2F07
:101FB200DB2FE02F3208031DDF2FE02FEE2F003042
:101FC200A3000030A2000030A1000030A0003208BF
:101FD200031DEC2FED2FEE2FB001321CF12FF22F4B
:101FE200F42FA217F82F7F30A8002808A205323656
:0E1FF200A300B01FFD2FFE2FFF2FA317080026
:1020040023009D1C0628072809281D121D162000E0
:10201400911E0D280E280928230019080800943160
:102024000924903168302300D900E430890B182842
:10203400D90B182800009D31C525903123006E0866
:1020440003192528262820288A3135229031210099
:102054006C03031D2E282F28432823003F08D20099
:102064003E08D10021005C082300D40021005B0855
:102074002300D30021006C082300D50087316F278B
:1020840090312300EE01202880317A2821006C0849
:10209400031D4D284E2875285F08F0006008F100E4
:1020A400F201F30100309231B42290317308200020
:1020B400D9007208D8007108D7007008D600230030
:1020C40027082000DD00230026082000DC00230070
:1020D40025082000DB00230024082000DA008C31CE
:1020E400072490319F285D08F0005E08F100F2019A
:1020F400F30100309231B422903173082000D900EA
:102104007208D8007108D7007008D600210055085D
:10211400F0005608F100F201F30100309231B422CC
:10212400903173082000DD007208DC007108DB00C8
:102134007008DA008C31072490319E317A26903170
:10214400080003102100220D230DA9002908031DF6
:10215400AC28AD28B6280030A3000030A20000301F
:10216400A1000030A00013292008A4002108A50024
:102174002208A6002308A7001F30A736A60CA50C2A
:10218400A40C890BBF282408A800A217FF30A005BF
:10219400FF30A105FF30A2050030A3059630A90247
:1021A400A91FD528D628EE282908803A973E031877
:1021B400DC28DD28DE28AD280130A336A20CA10CD2
:1021C400A00C890BDF280130A4002408A907031DF3
:1021D400EC28ED28DE28032920302902031CF328EB
:1021E400F428FE28AD280130A035A10DA20DA30DC1
:1021F400890BF6280130A9022908031D02290329A5
:10220400F52828080319072908291329A009A10971
:10221400A209A309A00A0319A10A0319A20A03190E
:10222400A30A0800031023004B0D4C0D2200EF00FD
:102234006F08031D1E291F29292900302300CC0003
:102244000030CB000030CA000030C9008F292300C1
:102254004908CD004A08CE004B08CF004C08D000F6
:102264001F30D036CF0CCE0CCD0C890B33294D0842
:102274002200EE002300CB17FF30C905FF30CA054A
:10228400FF30CB050030CC0596302200EF02EF1F63
:102294004C294D2967296F08803A973E0318532922
:1022A400542955291F2901302300CC36CB0CCA0CE4
:1022B400C90C890B56290130CD004D082200EF07C7
:1022C400031D6529662955297E2920306F02031CC8
:1022D4006C296D2979291F2901302300C935CA0DBC
:1022E400CB0DCC0D890B6F2901302200EF026F0852
:1022F400031D7D297E296E296E08031982298329ED
:102304008F292300C909CA09CB09CC09C90A0319B1
:10231400CA0A0319CB0A0319CC0A0800FF295D086D
:10232400CF005E08D000D1015F08D2006008D3005E
:10233400D401122A4F08F0005008F1005108F200AD
:102344000930F236F10CF00C890BA3290130700529
:10235400F30000307105F4004F08F5005008F60052
:102364005108F7000A30F736F60CF50C890BB5293D
:10237400730875072300BC007408763DBD00210076
:102384005208F0005308F1005408F2000930F23604
:10239400F10CF00C890BC92901307005F3000030F1
:1023A4007105F4005208F5005308F6005408F700CC
:1023B4000A30F736F60CF50C890BDB297308750720
:1023C4002300BE007408763DBF00122A5D08F000A9
:1023D4005E08F100F2017008CF077108D03D720861
:1023E400D13D5F08F0006008F100F2017008D207E7
:1023F4007108D33D7208D43D122A21006B08003ABB
:102404000319082A043A03190D2AE8296A08003A2C
:1024140003199C29E8296A08003A03199129E82933
:10242400080021006D03031D182A192A422A2000DE
:102434000D156830F000E430890B1E2AF00B1E2ABB
:10244400003220008D116830F000E430890B282A16
:10245400F00B282A003220000D126830F000E4301E
:10246400890B322AF00B322A003220008D12683098
:10247400F000E430890B3C2AF00B3C2A0032B32AEA
:1024840002306D06031D472A482A5D2A20000D11DB
:102494006830F000E430890B4D2AF00B4D2A0032ED
:1024A40020008D156830F000E430890B572AF00BBA
:1024B400572A00322D2A03306D06031D622A632A2F
:1024C400842A20000D116830F000E430890B682A5A
:1024D400F00B682A003220008D116830F000E430DF
:1024E400890B722AF00B722A003220000D16683014
:1024F400F000E430890B7C2AF00B7C2A00322000A7
:102504008D12B32A04306D06031D892A8A2AB32A40
:1025140020000D116830F000E430890B8F2AF00B95
:102524008F2A003220008D116830F000E430890BCE
:10253400992AF00B992A003220000D126830F0001D
:10254400E430890BA32AF00BA32A003220008D1655
:102554006830F000E430890BAD2AF00BAD2A00326C
:10256400B32A0800F80078080319B92ABA2ACE2A2F
:10257400F31FBD2ABE2ACE2A7009FA007109FB0096
:102584007209FC007309FD00FA0A0319FB0A031916
:10259400FC0A0319FD0AD62A7308FD007208FC0020
:1025A4007108FB007008FA00730872047104700467
:1025B400031DDD2ADE2AE72A0030F3000030F20092
:1025C4000030F1000030F0005D2B9630F900F52A60
:1025D4000130F4007408F9070130FD36FC0CFB0CE3
:1025E400FA0C890BEF2AFE307D05031DFA2AFB2A1B
:1025F400EA2A0F2B0130F4007408F9070130FA07B6
:102604000030FB3D0030FC3D0030FD3D0130FD3627
:10261400FC0CFB0CFA0C890B092BFF307D05031D08
:10262400142B152BFC2A1F2B0130F9020130FA352B
:10263400FB0DFC0DFD0D890B192BFC1B222B232BF1
:10264400292B023079020318282B292B162B7918F1
:102654002C2B2D2B352BFF30FA05FF30FB057F305B
:10266400FC05FF30FD050310F90C7908F400F501B1
:10267400F601F7011830F435F50DF60DF70D890B59
:102684003D2B7408FA047508FB047608FC047708EB
:10269400FD04780803194F2B502B552BF31F532B94
:1026A400542B552BFD177D08F3007C08F2007B08A2
:1026B400F1007A08F00008002200A8002808031995
:1026C400642B652B792BA31F682B692B792B20098D
:1026D400AA002109AB002209AC002309AD00AA0A13
:1026E4000319AB0A0319AC0A0319AD0A812B230899
:1026F400AD002208AC002108AB002008AA00230882
:10270400220421042004031D882B892B922B0030E2
:10271400A3000030A2000030A1000030A000082C6B
:102724009630A900A02B0130A4002408A907013089
:10273400AD36AC0CAB0CAA0C890B9A2BFE302D05D4
:10274400031DA52BA62B952BBA2B0130A40024081E
:10275400A9070130AA070030AB3D0030AC3D003082
:10276400AD3D0130AD36AC0CAB0CAA0C890BB42BCF
:10277400FF302D05031DBF2BC02BA72BCA2B013007
:10278400A9020130AA35AB0DAC0DAD0D890BC42BDC
:10279400AC1BCD2BCE2BD42B023029020318D32B08
:1027A400D42BC12B2918D72BD82BE02BFF30AA050B
:1027B400FF30AB057F30AC05FF30AD050310A90C2D
:1027C4002908A400A501A601A7011830A435A50D68
:1027D400A60DA70D890BE82B2408AA042508AB0431
:1027E4002608AC042708AD0428080319FA2BFB2B90
:1027F400002CA31FFE2BFF2B002CAD172D08A300CC
:102804002C08A2002B08A1002A08A00008006400DC
:102814002100951324009015783021009904FC3090
:10282400990599178E1124008E1121000E1224008F
:102834000E1221008E1224008E1221000D1123008D
:102844000D1124000D1121008D1123008D11240080
:102854008D1121000D1223000D1224000D122100F0
:102864008D1223008D1224008D129F310C27943178
:10287400200018119811181099131813981318128E
:102884009812E13097008330960030009101920154
:10289400013094000130A600FF30A500A4013230BD
:1028A400A300A201A1012E15161115151C141A144A
:1028B4001B148030910021000E1124000E11210000
:1028C4008C1523008C1524008C1121008D142300F9
:1028D4008D1424008D1021000D1423000D142400E8
:1028E4000D1021008C1623008C1624008C1221005C
:1028F4009D131E088F3920389E001E111E08FC39B6
:1029040001389E009E170F309F041D1422001D11D4
:102914009D1023009C018A309B001E159F151E12DA
:102924009D179E161D161E131D13210091121112C0
:1029340020008E110E1205302300D4000F30D30076
:10294400F130890BA32CD30BA32CD40BA32C200084
:102954008E1505302300D4000F30D300F130890BDD
:10296400B12CD30BB12CD40BB12C20008E1105301B
:102974002300D4000F30D300F130890BBF2CD30BCC
:10298400BF2CD40BBF2C20008E1605302300D4009E
:102994000F30D300F130890BCD2CD30BCD2CD40BBD
:1029A400CD2C3B302300B300C430B2009B30B100C7
:1029B400A630B0003A30AF008330AE001230AD0024
:1029C4006F30AC000030AB000030AA000030A9002A
:1029D4000030A80000302100CE000030CD000030CF
:1029E400CC000030CB0005302300D4000F30D300DE
:1029F400F130890BFB2CD30BFB2CD40BFB2C2000CC
:102A04008E110E122100E70120008E1242302300A5
:102A1400A3004830A2000030A1000030A0009E3185
:102A24003F2694319F310C27943108000A30F0007E
:102A3400AF309F31682795313F30F000CE30F10040
:102A4400AF309F313927953170087104031D2B2D48
:102A54002C2D3B2D3030F5002E30F6003030F000B8
:102A6400AE30F1009D31F225953170089D31AF25CE
:102A7400953121002F08C4003F2E41303606031D36
:102A8400442D452D4B2DED01ED0A9F31CA2795317B
:102A9400672D4F303606031D502D512D672D200014
:102AA4008E110E122100E70120008E124230230005
:102AB400A3004830A2000030A1000030A0009E31E5
:102AC4007A2695319E31E32695313A30210033063A
:102AD400031D6D2D6E2D6F2DD52D20303306031D56
:102AE400742D752DD52DEC01EC0A5908F0005A0807
:102AF400F100F201F30100309231B42295317308F0
:102B04002000C3007208C2007108C1007008C00030
:102B14004530BF008030BE000030BD000030BC0036
:102B240085313425953120003F08DD003E08DC0066
:102B34003D08DB003C08DA004630D9004330D800B9
:102B44005030D7000030D6009631562695312000FB
:102B54005908A7005808A6005708A5005608A4005D
:102B64003F30A3000030A2000030A1000030A000DC
:102B74008D31F8259531200023082100A300200081
:102B840022082100A200200021082100A100200029
:102B940020082100A0009031A320953121002108B4
:102BA400D6002008D5003A303306031DDA2DDB2D7C
:102BB400DC2D3B2E20303306031DE12DE22D3B2E70
:102BC400EC013F302000A3000030A2000030A1003F
:102BD4000030A0004530D9009C30D8004030D700E8
:102BE4000030D6004530BF008030BE000030BD004C
:102BF4000030BC0021005B08F0005C08F100F20129
:102C0400F30100309231B422953173082000C300DF
:102C14007208C2007108C1007008C00085313425F3
:102C2400953120003F08DD003E08DC003D08DB0054
:102C34003C08DA0096315626953120005908A70041
:102C44005808A6005708A5005608A4008D31F82599
:102C54009531200023082300A70020002208230028
:102C6400A600200021082300A5002000200823003E
:102C7400A4002100C3010030552E4408AD00AE016C
:102C84002E08003A0319472E3B2E2D08433A031908
:102C9400672D0E3A03193F2D023A03193F2D193AB5
:102CA4000319D52D3B2E080020005D088039E7006C
:102CB4005D35EE00DC1F5F2E602E612E6E146E08F3
:102CC4000319652E662E762E6E0A031D6A2E6B2E50
:102CD400732E0030DD000030DC000030DB000030FB
:102CE400DA00DC17DD017E2E0030DD000030DC0070
:102CF4000030DB000030DA0059088039DE005E085D
:102D0400E7065935EF00D81F882E892E8A2E6F14B6
:102D14006F0803198E2E8F2E9F2E6F0A031D932E7C
:102D2400942E9C2E0030D9000030D8000030D700FB
:102D34000030D600D817D901A72E0030D9000030B2
:102D4400D8000030D7000030D60059085804570482
:102D54005604031DAE2EAF2EC82E0030DD00003009
:102D6400DC000030DB000030DA008030DC047F302F
:102D7400DD046708DE005E08DD045D08D9005C0838
:102D8400D8005B08D7005A08D600FF2F6E08031D31
:102D9400CC2ECD2ED62E0030D9000030D8000030F5
:102DA400D7000030D600FF2F6E08DE00DF015F0879
:102DB400E1006F085E02E000031CE10360087F3E4F
:102DC400E8000030613DE9005D08E6005C08E500CC
:102DD4005B08E4005A08E3000030DD000030DC004A
:102DE4000030DB000030DA000030ED000030EC0091
:102DF4000030EB000030EA00EF013E2F6F080319AA
:102E0400042F052F1F2F0130E335E40DE50DE60DEA
:102E1400890B062F0130DA35DB0DDC0DDD0D890B56
:102E24000D2FED1F162F172F182F5A140130EA35C6
:102E3400EB0DEC0DED0D890B192F59086602031DDE
:102E44002D2F58086502031D2D2F57086402031DFA
:102E54002D2F56086302031C302F312F3A2F6D1784
:102E64005608E3025708E43B5808E53B5908E63B9B
:102E74000130DE005E08EF071A306F02031C432F97
:102E8400442F002F660865046404630403194B2F60
:102E94004C2F652F6A14652F0130DA35DB0DDC0DFC
:102EA400DD0D890B4F2FED1F582F592F5A2F5A1410
:102EB4000130EA35EB0DEC0DED0D890B5B2FFF3086
:102EC400E807FF30E93DDC1F682F692F4E2FEF0123
:102ED400ED1F6D2F6E2F8A2FFF306A05DE00FF3045
:102EE4006B05DF00FF306C05E0007F306D05E1000D
:102EF400610860045F045E040319812F822F852F0B
:102F0400EF01EF0A8A2F5A1C882F892F8A2F822FCC
:102F14006F0803198E2F8F2FB72F0130DA07003077
:102F2400DB3D0030DC3D0030DD3D5D1C9A2F9B2FE6
:102F3400B72F5A08DE005B08DF005C08E0005D087C
:102F4400E1000130E200E137E00CDF0CDE0CE20BC3
:102F5400A52F6108DD006008DC005F08DB005E0867
:102F6400DA000130E8070030E93D6908803ADE0004
:102F740080305E02031DC02FFF306802031CC32F84
:102F8400C42FD12FFF302000E8000030E9000030CA
:102F9400DD000030DC000030DB000030DA0020000F
:102FA4006908803ADE0080305E02031DDB2F0130A9
:102FB40068020318DE2FDF2FEB2F2000E801E90160
:102FC4000030DD000030DC000030DB000030DA00CF
:102FD400E70120006808EE006E1CF12FF22FF42F99
:102FE400DC17F82F7F30DE005E08DC056E36DD006E
:102FF4006708DE005E08DD04BF2E0800543449343F
:103004004D3449344E3447345F34453452345234A9
:103014004F34523400344F344534523452345F34D4
:0C3024004534523452344F3452340034DE
:103ADC000034043401340134640080010131890B59
:103AEC00732D0034FE0012001E00FE0B792D0034E5
:103AFC006F34123483343A34A6349B34C4343B349C
:103B0C00F0002000111E8B2D8C2D872D70082300AA
:103B1C009A000800F0002000111E952D962D912D75
:103B2C00700823009A0008006F34123403343A34BE
:103B3C00A6349B3444343B340A34D734A3343C3459
:103B4C006F34123403343A34FA34ED34EB343A34FF
:103B5C000134F700BD2D7508860076088700010832
:103B6C009D3190259D310130F5070030F63D013037
:103B7C00F702770A031DC32DC42DB12D0800C82DE3
:103B8C00230019082000911ACC2DCD2DC62D210013
:103B9C009116111211140B178B170030EA00043018
:103BAC00EB002000111018140800E82D7108840097
:103BBC007208850000089D3186259D310130F10782
:103BCC000030F23D71088400720885001200031D5C
:103BDC00F02DF12DDC2D08007108F4007008F300B5
:103BEC00FB2D0130F0070030F13D700884007108A6
:103BFC0085001200031D032E042EF72D730870028E
:103C0C00F0007408713BF10008007108803AF20072
:103C1C0080307202031D142E013070020318172E0F
:103C2C00182E242E7009F2007109F300F20A031900
:103C3C00F30A7208F0007308F100242E080021002A
:103C4C006A086B04031D2B2E2C2E3A2E2300EE013A
:103C5C00EE0A00302100EA000430EB0001302300B2
:103C6C00BA070030BB3D3E2E0130EA020030EB3B80
:103C7C00080023002308CC002208CB002108CA002E
:103C8C002008C900913114219E3123004A08D2002A
:103C9C004908D10051083000A30023005208013913
:103CAC003000A4001117080080302000B7063B0834
:103CBC00A3003A08A2003908A1003808A000370870
:103CCC00A7003608A6003508A5003408A4008D31DD
:103CDC00F8259E3120002308B7002208B6002108E1
:103CEC00B5002008B4000800230023082100A3001D
:103CFC00230022082100A200230021082100A1009A
:103D0C00230020082100A0009031A3209E31210027
:103D1C002108AB002008AA002A083000A3002100CB
:103D2C002B0801393000A40011170800F800F40129
:103D3C00F5017008F200F3017208F6007308F70041
:103D4C00781CA92EAA2EAE2E7608F4077708F53D1E
:103D5C000130F635F70D890BAF2E0310F80C7808EF
:103D6C00031DB92EBA2EA62E7508F1007408F000AA
:103D7C0008002200A800A401A5012008A200A301AC
:103D8C002208A6002308A700281CCD2ECE2ED22E4A
:103D9C002608A4072708A53D0130A635A70D890BD9
:103DAC00D32E0310A80C2808031DDD2EDE2ECA2EE0
:103DBC002508A1002408A000080020000D1168307F
:103DCC00F000E430890BE82EF00BE82E00322000D6
:103DDC008D116830F000E430890BF22EF00BF22ECE
:103DEC00003220000D126830F000E430890BFC2EFC
:103DFC00F00BFC2E003220008D126830F000E43005
:103E0C00890B062FF00B062F0032080020000D1135
:103E1C0068302200A000E430890B122FA00B122F67
:103E2C00000020008D1168302200A000E430890BC6
:103E3C001D2FA00B1D2F000020000D12683022003A
:103E4C00A000E430890B282FA00B282F00002000A5
:103E5C008D1268302200A000E430890B332FA00BA8
:103E6C00332F00000800F300432F0130F2007208DA
:103E7C00F3070130F0070030F13D70088400710841
:103E8C0085000008F200730886008701010872069D
:103E9C00031D512F522F5A2F7308860087010108DA
:103EAC00031D592F5A2F3B2F73088600870170086A
:103EBC0084007108850000080102F000F101031C68
:103ECC00F1030800F300F401F501832F9031022077
:103EDC009F31F20072087006031D752F762F772F15
:103EEC00902F74087307F10071088600870172081F
:103EFC0081000130F4070030F53D7508803AF1007F
:103F0C0080307102031D8C2F13307402031C8F2F11
:103F1C00902F6C2F74087307F100710886008701CD
:103F2C00810108001A30890B992F00327008F200B9
:103F3C00F20DF20D21001D087206833972069D00E8
:103F4C001A30890BA72F003221009D149D18AF2F1A
:103F5C00B02FAC2F1C08F200F3017208F300F20131
:103F6C0000307205F5000F307305F60075081B0460
:103F7C00F7007608F8007708F9007808FA007A0854
:103F8C00F1007908F00008002100EC01EC0A003087
:103F9C00CE000030CD000030CC000030CB00003023
:103FAC002300B7000030B6000030B5000030B4007C
:103FBC002100D701D80142302300A3004830A200D1
:103FCC000030A1000030A0009E317A269F31923142
:103FDC0013229F3168302100AC00E430890BF42FA0
:103FEC00AC0BF42F00002300BA01BB012100E70148
:043FFC00E70A0800C8
:020000040001F9
:08000000FF3FFF3FFF3FFF3F00
:04000E00E431FF1EBC
:00000001FF
