:0400000080317A28A9
:100008007E1480312000911E0A280B282128911285
:1000180023009D1C102811281B281D121D160D30A9
:10002800F1009830F2009D31392580312128803146
:10003800BC2080319C31E82480312000111C252807
:1000480026287828E13097008330960011100A306E
:10005800F0000030F1009E31AB268031710821009C
:10006800DE007008DD000C30F0000030F1009E3139
:10007800AB26803171082100DC007008DB000030FD
:10008800C7000830C8005B084702F0005C08483B1E
:10009800F1009D315025803171082100DC00700885
:1000A800DB006508031959285A285E289031062074
:1000B800803166280030D0000030CF000030CE00FC
:1000C8000030CD009031612080319D316A2580312A
:1000D8002000111C7028712878280030F100983011
:1000E800F2009D31392580317E10090080317C284D
:1000F800CB3084009C308500EB30860000308700D0
:100108000430903100208031D53084009C30850047
:10011800E4308600013087000930903100208031BA
:100128000F3084009D3085004A30860002308700F9
:100138001430903100208031C930840000308500AF
:1001480022309C31CF248031A030840001308500DA
:100158002B309C31CF248031203084000230850040
:100168002A309C31CF2480317E1020009D31D82D3B
:100178002100C301C30AC501C60120308600023030
:100188008700AF308400003085001430AD001600C1
:100198001A00AD0BCB28C130EA003C30E9006708F3
:1001A800031DD728D8289E2B9D3100258031DD3AA4
:1001B800031DDF28E0289A2B9D310025803121007E
:1001C800C4009D31002580312100C5009D310025E6
:1001D80080312100C60046080319F328F428FA28BC
:1001E800AF30F00046089D319F2580312100670817
:1001F800031DFF280029A22B872B4408F10045087E
:10020800F200DD309C31F22480312A290A309C31F9
:10021800E824803121006A08F100FF39031D01300C
:10022800F2000A309D31232580313B290E309C3164
:10023800E824803121006908F100FF39031D0230EC
:10024800F2000E309D31232580313B2921004508DD
:10025800AD00AE012E08003A031933293B292D08B9
:10026800033A03190A29043A03191A293B29773052
:100278009C31E8248031A22BAF30F0006A08F100ED
:10028800FF39031D0130F20046089D31BB2580313E
:100298003F302000A3000030A2000030A100003051
:1002A800A0004530D9009C30D8004030D70000303D
:1002B800D6004530BF008030BE000030BD000030A1
:1002C800BC0023004108F0004208F100F201F301EC
:1002D800003091318521803173082000C3007208F5
:1002E800C2007108C1007008C0008B318A238031B8
:1002F80020003F08DD003E08DC003D08DB003C082C
:10030800DA009231DA22803120005908A700580813
:10031800A6005708A5005608A4008531E2258031BB
:10032800200023082300A700200022082300A6009D
:10033800200021082300A500200020082300A40095
:100348004308F0004408F100F201F3010030913154
:100358008521803173082000C3007208C20071082B
:10036800C1007008C0004530BF008030BE000030BA
:10037800BD000030BC008B318A23803120003F084B
:10038800DD003E08DC003D08DB003C08DA004630B2
:10039800D9004330D8005030D7000030D600923111
:1003A800DA22803120005908A7005808A60057080B
:1003B800A5005608A4003F30A3000030A20000307A
:1003C800A1000030A0008531E225803120002308FB
:1003D8002100A300200022082100A20020002108FB
:1003E8002100A100200020082100A0009F31132730
:1003F800803121002108D8002008D70023004608B2
:100408002100E400230045082100E300A22BAF30BF
:10041800F0006908F100FF39031D0230F2004608B8
:100428009D31BB25803149302000D9007430D80077
:100438002430D7000030D60024003C08F0003D08E6
:10044800F100F201F3010030913185218031730808
:100458002000DD007208DC007108DB007008DA009B
:100468009231DA228031200059082400DD00200072
:1004780058082400DC00200057082400DB00200076
:1004880056082400DA0049302000D9007430D8001A
:100498002430D7000030D60024003E08F0003F0882
:1004A800F100F201F30100309131852180317308A8
:1004B8002000DD007208DC007108DB007008DA003B
:1004C8009231DA228031200059082400D900200016
:1004D80058082400D800200057082400D70020001E
:1004E80056082400D60044302000D9007A30D800BD
:1004F8000030D7000030D60024004008F000410842
:10050800F100F201F3010030913185218031730847
:100518002000DD007208DC007108DB007008DA00DA
:100528009231DA228031200059082400D5002000B9
:1005380058082400D400200057082400D3002000C5
:1005480056082400D20049302000D9007430D80061
:100558002430D7000030D60024004208F0004308B9
:10056800F100F201F30100309131852180317308E7
:100578002000DD007208DC007108DB007008DA007A
:100588009231DA228031200059082400D10020005D
:1005980058082400D000200057082400CF0020006D
:1005A80056082400CE0049302000D9007430D80005
:1005B8002430D7000030D60024004408F000450855
:1005C800F100F201F3010030913185218031730887
:1005D8002000DD007208DC007108DB007008DA001A
:1005E8009231DA228031200059082400CD00200001
:1005F80058082400CC00200057082400CB00200015
:1006080056082400CA0049302000D9007430D800A8
:100618002430D7000030D60024004608F0004708F0
:10062800F100F201F3010030913185218031730826
:100638002000DD007208DC007108DB007008DA00B9
:100648009231DA228031200059082300EB00200083
:1006580058082300EA00200057082300E90020007A
:1006680056082300E80049302000D9007430D8002B
:100678002430D7000030D60024004808F00049088C
:10068800F100F201F30100309131852180317308C6
:100698002000DD007208DC007108DB007008DA0059
:1006A8009231DA228031200059082300E700200027
:1006B80058082300E600200057082300E500200022
:1006C80056082300E400A22B4508AD00AE012E0811
:1006D800003A0319702B9D2B2D08033A0319402962
:1006E800043A03190B2A9D2B05304506031D7D2B63
:1006F8007E2B9D2BEE01EE0A9E31DD2680312100F6
:10070800E701E70AA22B4408AD00AE012E08003A23
:1007180003198F2BA22B2D080F3A0319782B553A62
:100728000319682BFF3A03190129A22B2100C301E1
:10073800A22BA22B9D31002580319A2B2100430842
:100748000800220065088039EA006535EC00E41FDE
:10075800AE2BAF2BB02B6C146C080319B42BB52B34
:10076800C52B6C0A031DB92BBA2BC22B0030E50030
:100778000030E4000030E3000030E200E417E50157
:10078800CD2B0030E5000030E4000030E3000030FD
:10079800E20069088039EB006B086A060319D52B5B
:1007A800D62BD72B6A176935EB00E81FDC2BDD2B1E
:1007B800DE2B6B146B080319E22BE32BF32B6B0A6C
:1007C800031DE72BE82BF02B0030E9000030E80090
:1007D8000030E7000030E600E817E901FB2B0030A5
:1007E800E9000030E8000030E7000030E6006C085F
:1007F8006B020318002C012C292C6A1F042C052CD1
:100808000B2C80302300CB004B082200EA066C0832
:10081800ED006B08EC006D08EB006208ED0066085F
:10082800E2006D08E6006308ED006708E3006D0864
:10083800E7006408ED006808E4006D08E800650852
:10084800ED006908E5006D08E900ED016B0823007B
:10085800CB00CC014C08CE0022006C0823004B02D0
:10086800CD00031CCE034E08803ACF0080304F02E3
:10087800031D402C1A304D02031C432C442C7A2CA7
:1008880022006508640463046204031D4C2C4E2C8A
:1008980001304F2C0030ED000030E5000030E4005E
:1008A8000030E3000030E2006B08EC00812C6D1C86
:1008B8005E2C5F2C632C6D360138ED00652C03101F
:1008C800ED0C621C682C692C6A2CED170130230092
:1008D800CB002200E537E40CE30CE20C2300CB0B41
:1008E8006D2C0130CB004B082200EC0722006B086E
:1008F8006C02031C802C812C5B2C6A1B842C852C9D
:10090800BF2C6C08031D892C8A2C932C0030E50021
:100918000030E4000030E3000030E200E12D66081A
:10092800E2076708E33D6808E43D6908E53D651CA2
:100938009E2C9F2C612D6D1CA22CA32CA72C6D36F0
:100948000138ED00A92C0310ED0C621CAC2CAD2C69
:10095800AE2CED1701302300CB002200E537E40C64
:10096800E30CE20C2300CB0BB12C0130CB004B087D
:100978002200EC07612D6508803A2300CB00220095
:100988006908803A23004B022200031DD52C680811
:100998006402031DD52C67086302031DD52C660865
:1009A80062020318D82CD92C232DFF302300CB004A
:1009B800FF30CC00FF30CD00FF30CE0022006208AF
:1009C80066022300CF0022006308673B2300D000A3
:1009D80022006408683B2300D10022006508693BB7
:1009E8002300D2004F08CB075008CC3D5108CD3D1D
:1009F8005208CE3D4E082200E50023004D08220093
:100A0800E40023004C082200E30023004B082200E6
:100A1800E20080302300CB004B082200EA06ED09F3
:100A2800ED0A6D08031D192D1A2D2B2D0130E20733
:100A38000030E33D0030E43D0030E53D2B2D6608F5
:100A4800E2026708E33B6808E43B6908E53B6508A0
:100A5800640463046204031D322D332D5D2D6D087B
:100A6800031D372D382D5D2D0030E5000030E400E2
:100A78000030E3000030E200E12D0130E235E30D03
:100A8800E40DE50D890B422DED1F4B2D4C2D4D2D01
:100A980062146D1C502D512D542D0314ED0D562D3F
:100AA8000310ED0D6C0803195A2D5B2D5D2D0130D7
:100AB800EC02E41F602D612D412DEB01ED1F652D2A
:100AC800662D742D6D087F3903196B2D6C2D6F2DD4
:100AD800EB01EB0A742D621C722D732D742D6C2D95
:100AE8006B080319782D792DB62D0130E2070030F7
:100AF800E33D0030E43D0030E53D651C842D852D47
:100B0800B62D62082300CB00220063082300CC0026
:100B1800220064082300CD00220065082300CE00CF
:100B28000130CF00CE37CD0CCC0CCB0CCF0B962D93
:100B38004E082200E50023004D082200E4002300AF
:100B48004C082200E30023004B082200E2006C0A54
:100B58000319AF2DB02DB62D01302300CB004B0863
:100B68002200EC076C0A0319BA2DBB2DC02D6C08A6
:100B7800031DBF2DC02DCE2D0030E5000030E40050
:100B88000030E3000030E2006C08031DCC2DCD2DB1
:100B9800CE2DEA016C1CD12DD22DD42DE417DA2DDF
:100BA8007F302300CB004B082200E4056C36E500BB
:100BB800EA1FDF2DE02DE12DE517080020002308AE
:100BC8008039B0002335B200A21FEB2DEC2DED2D9E
:100BD800321432080319F12DF22D022E320A031DA8
:100BE800F62DF72DFF2D0030A3000030A2000030B5
:100BF800A1000030A000A217A3010A2E0030A30014
:100C08000030A2000030A1000030A0002708803981
:100C1800B100310830060319122E132E142E301786
:100C28002735B100A61F192E1A2E1B2E3114310894
:100C380003191F2E202E302E310A031D242E252E97
:100C48002D2E0030A7000030A6000030A50000308F
:100C5800A400A617A701382E0030A7000030A60070
:100C68000030A5000030A4003208310203183D2EE0
:100C78003E2E642E301F412E422E462E8030A80074
:100C88002808B0063208B3003108B2003308B100B2
:100C98002008B3002408A0003308A4002108B300EA
:100CA8002508A1003308A5002208B3002608A200E1
:100CB8003308A6002308B3002708A3003308A700B9
:100CC800B3013108A800A9012908AB00320828029D
:100CD800AA00031CAB032B08803AAC0080302C021E
:100CE800031D782E1A302A02031C7B2E7C2EAE2E72
:100CF80020002308220421042004031D842E862EAC
:100D08000130872E0030B3000030A3000030A2006D
:100D18000030A1000030A0003108B200B52E331C0D
:100D2800962E972E9B2E33360138B3009D2E031036
:100D3800B30C201CA02EA12EA22EB3170130A800A0
:100D4800A337A20CA10CA00CA80BA42E0130A8005C
:100D58002808B207200031083202031CB42EB52E31
:100D6800932E301BB82EB92EEF2E3208031DBD2E40
:100D7800BE2EC72E0030A3000030A2000030A10014
:100D88000030A000E92F2408A0072508A13D260867
:100D9800A23D2708A33D231CD22ED32E7B2F331C24
:100DA800D62ED72EDB2E33360138B300DD2E0310B6
:100DB800B30C201CE02EE12EE22EB3170130A80060
:100DC800A337A20CA10CA00CA80BE42E0130A8009C
:100DD8002808B2077B2F2308803AA8002708803A02
:100DE8002802031D012F26082202031D012F2508B2
:100DF8002102031D012F240820020318042F052FA8
:100E08003D2FFF30A800FF30A900FF30AA00FF30B7
:100E1800AB0020082402AC002108253BAD002208C5
:100E2800263BAE002308273BAF002C08A8072D0857
:100E3800A93D2E08AA3D2F08AB3D2B08A3002A0880
:100E4800A2002908A1002808A0008030A8002808CE
:100E5800B006B309B30A3308031D332F342F452FC7
:100E68000130A0070030A13D0030A23D0030A33D75
:100E7800452F2408A0022508A13B2608A23B2708E5
:100E8800A33B2308220421042004031D4C2F4D2FCB
:100E9800772F3308031D512F522F772F0030A300CF
:100EA8000030A2000030A1000030A000E92F01307E
:100EB800A035A10DA20DA30D890B5C2FB31F652FC3
:100EC800662F672F2014331C6A2F6B2F6E2F031485
:100ED800B30D702F0310B30D32080319742F752F3B
:100EE800772F0130B202A21F7A2F7B2F5B2FB1011F
:100EF800B31F7F2F802F8E2F33087F390319852F3B
:100F0800862F892FB101B10A8E2F201C8C2F8D2F8F
:100F18008E2F862F31080319922F932FC02F01305F
:100F2800A0070030A13D0030A23D0030A33D231CA6
:100F38009E2F9F2FC02F2008A8002108A900220853
:100F4800AA002308AB000130AC00AB37AA0CA90CEF
:100F5800A80CAC0BA92F2B08A3002A08A20029086B
:100F6800A1002808A000320A0319BB2FBC2FC02FEC
:100F78000130A8002808B207320A0319C42FC52F68
:100F8800CA2F3208031DC92FCA2FD82F0030A3003B
:100F98000030A2000030A1000030A0003208031D7C
:100FA800D62FD72FD82FB001321CDB2FDC2FDE2F06
:100FB800A217E22F7F30A8002808A2053236A30026
:100FC800B01FE72FE82FE92FA3170800ED2F230004
:100FD80019082000911AF12FF22FEB2F21009116FA
:100FE800111211140B178B170030EB000430EC00B2
:100FF800200011101814080000307005F8000030A7
:101008007105F90080307205FA007F307305FB0026
:101018007B087A0479047804031D132814281C28F3
:101028000030F3000030F2000030F1000030F00032
:1010380000307405F80000307505F9008030760539
:10104800FA007F307705FB007B087A04790478047E
:10105800031D2F28302838280030F7000030F6000C
:101068000030F5000030F400F31F3B283C285428DA
:101078000030F8000030F9000030FA008030FB0042
:101088007008F8027108F93B7208FA3B7308FB3BD9
:101098007B08F3007A08F2007908F1007808F0007C
:1010A800F71F5728582870280030F8000030F9003A
:1010B8000030FA008030FB007408F8027508F93B2C
:1010C8007608FA3B7708FB3B7B08F7007A08F600BE
:1010D8007908F5007808F4008030F3068030F706C8
:1010E80077087302031D822876087202031D82287E
:1010F80075087102031D8228740870020318852878
:101108008628882803108928031408006400210011
:10111800951324009015783021009904FC30990526
:1011280099178E1124008E1121000E1224000E1220
:1011380021008E1224008E1221000D1123000D11A2
:1011480024000D1121008D1123008D1124008D1113
:1011580021000D1223000D1224000D1221008D1202
:1011680023008D1224008D129E317E2688312000A6
:101178001811981118109913181398131812981217
:10118800E1309700833096003000910192010130E0
:1011980094000130A600FF30A500A4013230A3005E
:1011A800A201A1012E15161115151C141A141B14D1
:1011B8008030910021000E1124000E1121008C15A1
:1011C80023008C1524008C1121008D1423008D140C
:1011D80024008D1021000D1423000D1424000D107F
:1011E80021008C1623008C1624008C1221009D13DC
:1011F8001E088F3920389E001E111E08FC39013840
:101208009E009E170F309F041D1422001D119D1073
:1012180023009C018A309B001E159F151E129D17E6
:101228009E161D161E131D13210091121112200067
:101238008E110E1205302300DE000F30DD00F13074
:10124800890B2429DD0B2429DE0B242920008E1587
:1012580005302300DE000F30DD00F130890B322924
:10126800DD0B3229DE0B322920008E1105302300D8
:10127800DE000F30DD00F130890B4029DD0B4029FD
:10128800DE0B402920008E1605302300DE000F30CB
:10129800DD00F130890B4E29DD0B4E29DE0B4E297E
:1012A80023006B08B3006A08B2006908B100680837
:1012B800B0006708AF006608AE006508AD006408B6
:1012C800AC000030AB000030AA000030A9000030AC
:1012D800A80000302100D0000030CF000030CE0040
:1012E8000030CD0005302300DE000F30DD00F13086
:1012F800890B7C29DD0B7C29DE0B7C2920008E11D3
:101308000E122100E50120008E1242302300A300B6
:101318004830A2000030A1000030A0009D31842593
:1013280088319E317E268831080020005D08BB0088
:101338005C08BA005B08B9005A08B8005908B70039
:101348005808B6005708B5005608B4009D31F52571
:10135800893120003708E1003608E0003508DF0051
:101368003408DE006108BB006008BA005F08B900F5
:101378005E08B80021004C082000B70021004B0887
:101388002000B60021004A082000B50021004908C5
:101398002000B4009D31F525893120003708C300AD
:1013A8003608C2003508C1003408C00023002B08E5
:1013B8002000BF0023002A082000BE0023002908BF
:1013C8002000BD00230028082000BC008B318A23A0
:1013D800893120003F08E5003E08E4003D08E300AD
:1013E8003C08E2006508A3006408A2006308A100A5
:1013F8006208A000230023082000A7002300220879
:101408002000A600230021082000A50023002008B2
:101418002000A4008531E22589312000230823001B
:10142800A300200022082300A20020002108230096
:10143800A100200020082300A00020005908B700C0
:101448005808B6005708B5005608B4005D08BB0038
:101458005C08BA005B08B9005A08B8009D31F52548
:101468008931200037082100CC00200036082100EF
:10147800CB00200035082100CA00200034082100D4
:10148800C9004430F3007A30F2000030F100003037
:10149800F0004C08F7004B08F6004A08F500490828
:1014A800F40088310020893103185B2A5C2A652AF8
:1014B80044302100CC007A30CB000030CA00003024
:1014C800C90021004C08F3004B08F2004A08F1005B
:1014D8004908F000C430F7007A30F6000030F50013
:1014E8000030F40088310020893103187C2A7D2AD5
:1014F800862AC4302100CC007A30CB000030CA00E4
:101508000030C90023002F082000C30023002E0844
:101518002000C20023002D082000C10023002C0851
:101528002000C00021004C082000BF0021004B080B
:101538002000BE0021004A082000BD002100490803
:101548002000BC008B318A23893120003F08A3008A
:101558003E08A2003D08A1003C08A0002100500858
:101568002000A70021004F082000A60021004E08F7
:101578002000A50021004D082000A4008531E225A7
:101588008931200023082100D000200022082100F2
:10159800CF00200021082100CE00200020082100D3
:1015A800CD004C082000C30021004B082000C200D9
:1015B80021004A082000C100210049082000C0007D
:1015C800230033082000BF00230032082000BE009B
:1015D800230031082000BD00230030082000BC0093
:1015E8008B318A23893120003F08A7003E08A600D6
:1015F8003D08A5003C08A400210050082000A300D5
:1016080021004F082000A20021004E082000A10060
:1016180021004D082000A0008531E22589312000F5
:101628002308E9002208E8002108E7002008E6006E
:101638006908A3006808A2006708A1006608A0005E
:10164800230023082000A700230022082000A6006A
:10165800230021082000A500230020082000A40062
:101668008531E2258931200023082300A3002000CA
:1016780022082300A200200021082300A100200046
:1016880020082300A0002308F3002208F200210804
:10169800F1002008F0004330F7009630F6000030E3
:1016A800F5000030F400883100208931031C5D2BDF
:1016B8005E2B682B43302300A3009630A200003035
:1016C800A1000030A000892B4230F3004830F2001E
:1016D8000030F1000030F00023002308F700220852
:1016E800F6002108F5002008F4008831002089312F
:1016F800031C7F2B802B892B42302300A30048300A
:10170800A2000030A1000030A000080020003F081F
:101718008039C9003F35CF00BE1F932B942B952BE2
:101728004F144F080319992B9A2BA92B4F0A031D05
:101738009E2B9F2BA72B0030BF000030BE0000302F
:10174800BD000030BC00BE17B12B0030BF00003018
:10175800BE000030BD000030BC0043088039C40022
:101768004408C9064335CE00C21FBB2BBC2BBD2B7A
:101778004E144E080319C12BC22BD12B4E0A031D40
:10178800C62BC72BCF2B0030C3000030C20000305F
:10179800C1000030C000C217D92B0030C300003090
:1017A800C2000030C1000030C0004E080319DD2B14
:1017B800DE2BE32B4F08031DE22BE32BEC2B003031
:1017C800BF000030BE000030BD000030BC00C42D9A
:1017D8003C08F00042089E3137268B317108200002
:1017E800D5007008D4005408C400C501C601C7015B
:1017F8004708CD004608CC004508CB004408CA007D
:101808005508C400C501C601C7014708D3004608EA
:10181800D2004508D1004408D0003D08F000410836
:101828009E3137268B3171082000D5007008D4000E
:101838005408C400C501C601C7014408CA074508C1
:10184800CB3D4608CC3D4708CD3D5508C400C501F1
:10185800C601C7014408D0074508D13D4608D23D16
:101868004708D33D3E08F00040089E3137268B31AB
:1018780071082000D5007008D4005408C400C501C0
:10188800C601C7014408CA074508CB3D4608CC3DF8
:101898004708CD3D5508C400C501C601C701440825
:1018A800D0074508D13D4608D23D4708D33D08300A
:1018B800CA35CB0DCC0DCD0D890B5C2C3D08F00045
:1018C80040089E3137268B3171082000D5007008FA
:1018D800D4005408CA075508CB3D0030CC3DCD3D57
:1018E8003C08F00041089E3137268B3171082000F2
:1018F800D5007008D4005408CA075508CB3D0030FD
:10190800CC3DCD3D0830CA35CB0DCC0DCD0D890B66
:10191800872C3C08F00040089E3137268B3171082F
:101928002000D5007008D4005408CA075508CB3DDC
:101938000030CC3DCD3D3D08F00042089E313726B1
:101948008B3171082000D5007008D4005408D007E6
:101958005508D13D0030D23DD33D3E08F000410846
:101968009E3137268B3171082000D5007008D400CD
:101978005408D0075508D13D0030D23DD33D3E082C
:10198800F00042089E3137268B3171082000D500BF
:101998007008D4005408C4005508C500C601C70122
:1019A8000830C435C50DC60DC70D890BD52C4408A4
:1019B800D0074508D13D4608D23D4708D33D4A08DF
:1019C800C4004B08C5004C08C6004D08C7001830B5
:1019D800C736C60CC50CC40C890BEC2C4408D007C0
:1019E8004508D13D4608D23D4708D33D0830CA35A1
:1019F800CB0DCC0DCD0D890BFB2C4F084E07C40029
:101A0800C501C50D4408823ED400FF30453DD500D0
:101A1800242D0130D035D10DD20DD30D890B0E2DCB
:101A2800CD1F172D182D192D50140130CA35CB0D87
:101A3800CC0DCD0D890B1A2DFF30D407FF30D53DC5
:101A4800D21F272D282D0D2DCE01CD1F2C2D2D2D4C
:101A5800492DFF304A05C400FF304B05C500FF3053
:101A68004C05C6007F304D05C700470846044504AD
:101A780044040319402D412D442DCE01CE0A492D91
:101A8800501C472D482D492D412D4E0803194D2D29
:101A98004E2D762D0130D0070030D13D0030D23D9B
:101AA8000030D33D531C592D5A2D762D5008C400B3
:101AB8005108C5005208C6005308C7000130C800C5
:101AC800C737C60CC50CC40CC80B642D4708D30017
:101AD8004608D2004508D1004408D0000130D40798
:101AE8000030D53D5508803AC40080304402031DBB
:101AF8007F2DFF305402031C822D832D8D2D7F30C6
:101B08002000D3008030D2000030D1000030D00057
:101B1800B82D20005508803AC40080304402031DC7
:101B2800972D0130540203189A2D9B2DA62D0030B5
:101B38002000D3000030D2000030D1000030D000A7
:101B4800C901B82D20005408CF00FF30D005FF3060
:101B5800D1057F30D2050030D3054F1CB42DB52DEB
:101B6800B62DD2174F36D3004908C4004408D30411
:101B78005308BF005208BE005108BD005008BC0001
:101B88000800220031088039BB003135C100B01F80
:101B9800CE2DCF2DD02D411441080319D42DD52D8C
:101BA800E42D410A031DD92DDA2DE22D0030B100B4
:101BB8000030B0000030AF000030AE00B017EC2DA0
:101BC8000030B1000030B0000030AF000030AE008F
:101BD80035088039B6003608BB063535C000B41F55
:101BE800F62DF72DF82D401440080319FC2DFD2D76
:101BF8000C2E400A031D012E022E0A2E0030B500BD
:101C08000030B4000030B3000030B200B417142E16
:101C18000030B5000030B4000030B3000030B2002E
:101C280040080319182E192E1E2E4108031D1D2EBB
:101C38001E2E272E0030B1000030B0000030AF005B
:101C48000030AE00FF2F2E08A00034089E315A261F
:101C58008D3122002108C7002008C6004608B600BA
:101C6800B701B801B9013908BF003808BE00370804
:101C7800BD003608BC004708B600B701B801B90175
:101C88003908C5003808C4003708C3003608C20040
:101C98002F08A00033089E315A268D3122002108D2
:101CA800C7002008C6004608B600B701B801B90148
:101CB8003608BC073708BD3D3808BE3D3908BF3D6A
:101CC8004708B600B701B801B9013608C207370896
:101CD800C33D3808C43D3908C53D3008A000320866
:101CE8009E315A268D3122002108C7002008C600DF
:101CF8004608B600B701B801B9013608BC0737086D
:101D0800BD3D3808BE3D3908BF3D4708B600B7019C
:101D1800B801B9013608C2073708C33D3808C43DC1
:101D28003908C53D0830BC35BD0DBE0DBF0D890B4A
:101D3800972E2F08A00032089E315A268D31220096
:101D48002108C7002008C6004608BC074708BD3D53
:101D58000030BE3DBF3D2E08A00033089E315A26F4
:101D68008D3122002108C7002008C6004608BC079C
:101D78004708BD3D0030BE3DBF3D0830BC35BD0DF8
:101D8800BE0DBF0D890BC22E2E08A00032089E3151
:101D98005A268D3122002108C7002008C6004608AF
:101DA800BC074708BD3D0030BE3DBF3D2F08A00021
:101DB80034089E315A268D3122002108C700200898
:101DC800C6004608C2074708C33D0030C43DC53DAC
:101DD8003008A00033089E315A268D312200210890
:101DE800C7002008C6004608C2074708C33D0030A0
:101DF800C43DC53D3008A00034089E315A268D31B7
:101E080022002108C7002008C6004608B600470877
:101E1800B700B801B9010830B635B70DB80DB90D1E
:101E2800890B102F3608C2073708C33D3808C43D50
:101E38003908C53D3C08B6003D08B7003E08B80063
:101E48003F08B9001830B936B80CB70CB60C890B76
:101E5800272F3608C2073708C33D3808C43D39085C
:101E6800C53D0830BC35BD0DBE0DBF0D890B362FE5
:101E780041084007B600B701B70D3608823EC600D4
:101E8800FF30373DC7005F2F0130C235C30DC40D89
:101E9800C50D890B492FBF1F522F532F542F4214A2
:101EA8000130BC35BD0DBE0DBF0D890B552FFF3060
:101EB800C607FF30C73DC41F622F632F482FC001DC
:101EC800BF1F672F682F842FFF303C05B600FF30F7
:101ED8003D05B700FF303E05B8007F303F05B9002B
:101EE800390838043704360403197B2F7C2F7F2FD9
:101EF800C001C00A842F421C822F832F842F7C2F7D
:101F080040080319882F892FB12F0130C2070030EC
:101F1800C33D0030C43D0030C53D451C942F952F6E
:101F2800B12F4208B6004308B7004408B800450876
:101F3800B9000130BA00B937B80CB70CB60CBA0BF7
:101F48009F2F3908C5003808C4003708C300360871
:101F5800C2000130C6070030C73D4708803AB600C6
:101F680080303602031DBA2FFF304602031CBD2FF6
:101F7800BE2FC82F7F302200C5008030C40000303B
:101F8800C3000030C200F32F22004708803AB60091
:101F980080303602031DD22F013046020318D52F98
:101FA800D62FE12F00302200C5000030C4000030D9
:101FB800C3000030C200BB01F32F22004608C10055
:101FC800FF30C205FF30C3057F30C4050030C505AA
:101FD800411CEF2FF02FF12FC4174136C5003B08E5
:101FE800B6003608C5044508B1004408B0004308E7
:101FF800AF004208AE000800FE0012001E00FE0BF3
:102008000128003421006D08031D0B280C283328F3
:102018005D08F0005E08F100F201F3010030913133
:102028008521903173082000D9007208D800710802
:10203800D7007008D600230027082000DD00230001
:1020480026082000DC00230025082000DB002300F0
:1020580024082000DA008931992190315D285B0835
:10206800F0005C08F100F201F301003091318521A4
:10207800903173082000D9007208D8007108D70081
:102088007008D60021005708F0005808F100F20146
:10209800F301003091318521903173082000DD0073
:1020A8007208DC007108DB007008DA0089319921B8
:1020B80090319E31152690310800D0285B08D10058
:1020C8005C08D200D3015D08D4005E08D500D601B3
:1020D800E3285108F0005208F1005308F2000930D3
:1020E800F236F10CF00C890B742801307005F300FE
:1020F80000307105F4005108F5005208F600530845
:10210800F7000A30F736F60CF50C890B86287308A9
:1021180075072300BC007408763DBD0021005408F3
:10212800F0005508F1005608F2000930F236F10CBB
:10213800F00C890B9A2801307005F3000030710506
:10214800F4005408F5005508F6005608F7000A3060
:10215800F736F60CF50C890BAC28730875072300C5
:10216800BE007408763DBF00E3285B08F0005C08F9
:10217800F100F2017008D1077108D23D7208D33D11
:102188005D08F0005E08F100F2017008D4077108DC
:10219800D53D7208D63DE32821006C08003A0319A2
:1021A800D928043A0319DE28B9286B08003A03191C
:1021B8006D28B9286B08003A03196228B928080065
:1021C80021006E03031DE928EA28132920000D15B4
:1021D8006830F000E430890BEF28F00BEF2800326C
:1021E80020008D116830F000E430890BF928F00BDD
:1021F800F928003220000D126830F000E430890B15
:102208000329F00B0329003220008D126830F000FA
:10221800E430890B0D29F00B0D2900328429023096
:102228006E06031D182919292E2920000D11683062
:10223800F000E430890B1E29F00B1E290032200023
:102248008D156830F000E430890B2829F00B282917
:102258000032FE2803306E06031D33293429552920
:1022680020000D116830F000E430890B3929F00B9B
:102278003929003220008D116830F000E430890BD4
:102288004329F00B4329003220000D166830F00076
:10229800E430890B4D29F00B4D29003220008D12B6
:1022A800842904306E06031D5A295B2984292000DD
:1022B8000D116830F000E430890B6029F00B6029BB
:1022C800003220008D116830F000E430890B6A2953
:1022D800F00B6A29003220000D126830F000E4305B
:1022E800890B7429F00B7429003220008D16683090
:1022F800F000E430890B7E29F00B7E290032842916
:102308000800F800780803198A298B299F29F31FE8
:102318008E298F299F297009FA007109FB0072091B
:10232800FC007309FD00FA0A0319FB0A0319FC0AE9
:102338000319FD0AA7297308FD007208FC0071083B
:10234800FB007008FA007308720471047004031D1E
:10235800AE29AF29B8290030F3000030F200003070
:10236800F1000030F0002E2A9630F900C62901301D
:10237800F4007408F9070130FD36FC0CFB0CFA0C6C
:10238800890BC029FE307D05031DCB29CC29BB292B
:10239800E0290130F4007408F9070130FA07003029
:1023A800FB3D0030FC3D0030FD3D0130FD36FC0CAE
:1023B800FB0CFA0C890BDA29FF307D05031DE52992
:1023C800E629CD29F0290130F9020130FA35FB0D53
:1023D800FC0DFD0D890BEA29FC1BF329F429FA29C8
:1023E800023079020318F929FA29E7297918FD2911
:1023F800FE29062AFF30FA05FF30FB057F30FC0571
:10240800FF30FD050310F90C7908F400F501F60119
:10241800F7011830F435F50DF60DF70D890B0E2A76
:102428007408FA047508FB047608FC047708FD04B0
:1024380078080319202A212A262AF31F242A252A64
:10244800262AFD177D08F3007C08F2007B08F100BE
:102458007A08F00008002200A80028080319352A85
:10246800362A4A2AA31F392A3A2A4A2A2009AA00C0
:102478002109AB002209AC002309AD00AA0A0319FF
:10248800AB0A0319AC0A0319AD0A522A2308AD0096
:102498002208AC002108AB002008AA002308220467
:1024A80021042004031D592A5A2A632A0030A30054
:1024B8000030A2000030A1000030A000D92A9630D8
:1024C800A900712A0130A4002408A9070130AD36FB
:1024D800AC0CAB0CAA0C890B6B2AFE302D05031D26
:1024E800762A772A662A8B2A0130A4002408A907AD
:1024F8000130AA070030AB3D0030AC3D0030AD3DA7
:102508000130AD36AC0CAB0CAA0C890B852AFF3018
:102518002D05031D902A912A782A9B2A0130A902A9
:102528000130AA35AB0DAC0DAD0D890B952AAC1B4E
:102538009E2A9F2AA52A023029020318A42AA52A1E
:10254800922A2918A82AA92AB12AFF30AA05FF30F9
:10255800AB057F30AC05FF30AD050310A90C290889
:10256800A400A501A601A7011830A435A50DA60D44
:10257800A70D890BB92A2408AA042508AB04260844
:10258800AC042708AD0428080319CB2ACC2AD12A81
:10259800A31FCF2AD02AD12AAD172D08A3002C08B3
:1025A800A2002B08A1002A08A000080020005D084E
:1025B8008039E7005D35EE00DC1FE32AE42AE52ACE
:1025C8006E146E080319E92AEA2AFA2A6E0A031D0C
:1025D800EE2AEF2AF72A0030DD000030DC00003058
:1025E800DB000030DA00DC17DD01022B0030DD00F3
:1025F8000030DC000030DB000030DA005908803998
:10260800DE005E08E7065935EF00D81F0C2B0D2BAE
:102618000E2B6F146F080319122B132B232B6F0A21
:10262800031D172B182B202B0030D9000030D800A1
:102638000030D7000030D600D817D9012B2B003036
:10264800D9000030D8000030D7000030D600590833
:10265800580457045604031D322B332B4C2B0030DF
:10266800DD000030DC000030DB000030DA008030B4
:10267800DC047F30DD046708DE005E08DD045D08E9
:10268800D9005C08D8005B08D7005A08D600832C0C
:102698006E08031D502B512B5A2B0030D9000030E7
:1026A800D8000030D7000030D600832C6E08DE003A
:1026B800DF015F08E1006F085E02E000031CE10330
:1026C80060087F3EE8000030613DE9005D08E600F3
:1026D8005C08E5005B08E4005A08E3000030DD0010
:1026E8000030DC000030DB000030DA000030ED00A4
:1026F8000030EC000030EB000030EA00EF01C22BA4
:102708006F080319882B892BA32B0130E335E40DBF
:10271800E50DE60D890B8A2B0130DA35DB0DDC0D72
:10272800DD0D890B912BED1F9A2B9B2B9C2B5A149B
:102738000130EA35EB0DEC0DED0D890B9D2B590899
:102748006602031DB12B58086502031DB12B5708FB
:102758006402031DB12B56086302031CB42BB52B6E
:10276800BE2B6D175608E3025708E43B5808E53BB3
:102778005908E63B0130DE005E08EF071A306F02A9
:10278800031CC72BC82B842B6608650464046304E8
:102798000319CF2BD02BE92B6A14E92B0130DA353A
:1027A800DB0DDC0DDD0D890BD32BED1FDC2BDD2BB9
:1027B800DE2B5A140130EA35EB0DEC0DED0D890BCB
:1027C800DF2BFF30E807FF30E93DDC1FEC2BED2B5A
:1027D800D22BEF01ED1FF12BF22B0E2CFF306A05E7
:1027E800DE00FF306B05DF00FF306C05E0007F3056
:1027F8006D05E100610860045F045E040319052C9F
:10280800062C092CEF01EF0A0E2C5A1C0C2C0D2C4F
:102818000E2C062C6F080319122C132C3B2C01309C
:10282800DA070030DB3D0030DC3D0030DD3D5D1C6B
:102838001E2C1F2C3B2C5A08DE005B08DF005C08AE
:10284800E0005D08E1000130E200E137E00CDF0C58
:10285800DE0CE20B292C6108DD006008DC005F0853
:10286800DB005E08DA000130E8070030E93D69085E
:10287800803ADE0080305E02031D442CFF3068027F
:10288800031C472C482C552CFF302000E800003052
:10289800E9000030DD000030DC000030DB000030F3
:1028A800DA0020006908803ADE0080305E02031DED
:1028B8005F2C013068020318622C632C6F2C2000F7
:1028C800E801E9010030DD000030DC000030DB0009
:1028D8000030DA00E70120006808EE006E1C752C55
:1028E800762C782CDC177C2C7F30DE005E08DC052B
:1028F8006E36DD006708DE005E08DD04432B080045
:1029080022004F088039D9004F35E000CE1F8D2CAA
:102918008E2C8F2C601460080319932C942CA42CF3
:10292800600A031D982C992CA12C0030CF00003090
:10293800CE000030CD000030CC00CE17CF01AC2C3B
:102948000030CF000030CE000030CD000030CC0089
:102958004B088039D0005008D9064B35E100CA1F12
:10296800B62CB72CB82C611461080319BC2CBD2CEB
:10297800CD2C610A031DC12CC22CCA2C0030CB00FF
:102988000030CA000030C9000030C800CA17CB01A7
:10299800D52C0030CB000030CA000030C900003010
:1029A800C8004B084A0449044804031DDC2CDD2CEC
:1029B800F62C0030CF000030CE000030CD000030C3
:1029C800CC008030CE047F30CF045908D0005008A6
:1029D800CF044F08CB004E08CA004D08C9004C0868
:1029E800C8002D2E6008031DFA2CFB2C042D003086
:1029F800CB000030CA000030C9000030C8002D2EBE
:102A08006008D000D1015108D30061085002D200FB
:102A1800031CD30352087F3EDA000030533DDB002D
:102A28004F08D8004E08D7004D08D6004C08D500EE
:102A38000030CF000030CE000030CD000030CC0098
:102A48000030DF000030DE000030DD000030DC0048
:102A5800E1016C2D61080319322D332D4D2D013004
:102A6800D535D60DD70DD80D890B342D0130CC3581
:102A7800CD0DCE0DCF0D890B3B2DDF1F442D452DE0
:102A8800462D4C140130DC35DD0DDE0DDF0D890BD4
:102A9800472D4B085802031D5B2D4A085702031D9A
:102AA8005B2D49085602031D5B2D48085502031C7F
:102AB8005E2D5F2D682D5F174808D5024908D63B63
:102AC8004A08D73B4B08D83B0130D0005008E107F3
:102AD8001A306102031C712D722D2E2D58085704CF
:102AE800560455040319792D7A2D932D5C14932DD2
:102AF8000130CC35CD0DCE0DCF0D890B7D2DDF1FCF
:102B0800862D872D882D4C140130DC35DD0DDE0D2A
:102B1800DF0D890B892DFF30DA07FF30DB3DCE1F33
:102B2800962D972D7C2DE101DF1F9B2D9C2DB82D17
:102B3800FF305C05D000FF305D05D100FF305E0539
:102B4800D2007F305F05D30053085204510450046B
:102B58000319AF2DB02DB32DE101E10AB82D4C1C9E
:102B6800B62DB72DB82DB02D61080319BC2DBD2D7C
:102B7800E52D0130CC070030CD3D0030CE3D003092
:102B8800CF3D4F1CC82DC92DE52D4C08D0004D0850
:102B9800D1004E08D2004F08D3000130D400D337FB
:102BA800D20CD10CD00CD40BD32D5308CF00520823
:102BB800CE005108CD005008CC000130DA070030B3
:102BC800DB3D5B08803AD00080305002031DEE2DBB
:102BD800FF305A02031CF12DF22DFF2DFF30220089
:102BE800DA000030DB000030CF000030CE000030CB
:102BF800CD000030CC0022005B08803AD000803045
:102C08005002031D092E01305A0203180C2E0D2EF6
:102C1800192E2200DA01DB010030CF000030CE008F
:102C28000030CD000030CC00D90122005A08E00065
:102C3800601C1F2E202E222ECE17262E7F30D0006D
:102C48005008CE056036CF005908D0005008CF0490
:102C5800ED2C080023003C082200A00023003D08BA
:102C68002200A100A201A301003092312F22963147
:102C780022002308B5002208B4002108B300200868
:102C8800B2004030B1002030B0000030AF0000305A
:102C9800AE008D31C5259631220031082300E200AF
:102CA800220030082300E10022002F082300E00062
:102CB80022002E082300DF0062082200B50023004E
:102CC80061082200B400230060082200B30023003A
:102CD8005F082200B2004530B1009C30B00040309F
:102CE800AF000030AE008D31C52596312200310885
:102CF800CF003008CE002F08CD002E08CC0045307C
:102D0800CB008030CA000030C9000030C8009431C0
:102D18008424963122004B08E9004A08E800490853
:102D2800E7004808E6003F30E5000030E4000030E6
:102D3800E3000030E2008331A523963122006508C4
:102D48002300D600220064082300D500220063086F
:102D58002300D400220062082300D3009F31842777
:102D68009631230054082400B70023005308240098
:102D7800B60023003E082200A00023003F082200DE
:102D8800A100A201A301003092312F229631220026
:102D98002308B5002208B4002108B3002008B200B7
:102DA8004530B1009C30B0004030AF000030AE007C
:102DB8008D31C525963122003108CF003008CE006C
:102DC8002F08CD002E08CC004530CB008030CA003B
:102DD8000030C9000030C8009431842496312200A4
:102DE8004B08E9004A08E8004908E7004808E600F7
:102DF8003F30E5000030E4000030E3000030E2003E
:102E08008331A5239631220065082300D6002200CD
:102E180064082300D500220063082300D4002200A0
:102E280062082300D3009F31842796312300540879
:102E38002400B500230053082400B40023003C08F4
:102E48002200A00023003D082200A100A201A30146
:102E5800003092312F22963122002308B500220833
:102E6800B4002108B3002008B2004030B10020307F
:102E7800B0000030AF000030AE008D31C52596316E
:102E8800220031082300E200220030082300E1007C
:102E980022002F082300E00022002E082300DF0074
:102EA80062082200B500230061082200B400230054
:102EB80060082200B30023005F082200B2004530FA
:102EC800B1009C30B0004030AF000030AE008D3112
:102ED800C525963122003108CF003008CE002F08D2
:102EE800CD002E08CC004530CB008030CA00003021
:102EF800C9000030C80094318424963122004B0860
:102F0800E9004A08E8004908E7004808E6003F30B9
:102F1800E5000030E4000030E3000030E2008331D7
:102F2800A5239631220065082300DE0022006408EC
:102F38002300DD00220063082300DC002200620871
:102F48002300DB005E082200CF0023005D0822007A
:102F5800CE0023005C082200CD0023005B0822007D
:102F6800CC004530CB006130CA000030C9000030C9
:102F7800C80094318424963122004B08E5004A08A1
:102F8800E4004908E3004808E2002300370822006B
:102F9800E900230036082200E80023003508220053
:102FA800E700230034082200E6008331A523963188
:102FB800220065082300B700220064082300B60039
:102FC800220063082300B500220062082300B40031
:102FD8003708D6003608D5003508D4003408D300A1
:102FE8009F3184279631230054082400B900230018
:102FF80053082400B8000800543449344D34493487
:103008004E3447345F344534523452344F3452349A
:1030180000344F344534523452345F3445345234DA
:0830280052344F3452340034DD
:103996000034043401340134640080010131890BA0
:1039A600D02C00346F34123483343A34A6349B342A
:1039B600C4343B340134F0002000111EE32CE42C07
:1039C600DF2C700823009A000800F0002000111E6A
:1039D600ED2CEE2CE92C700823009A000800F30069
:1039E60073089C31E8249C3171089C31E8249C3191
:1039F60072089C31E8249C31080023009D1C042D8C
:103A0600052D072D1D121D162000911E0B2D0C2DA8
:103A1600072D2300190808006F34123403343A3492
:103A2600A6349B3444343B340A34D734A3343C3470
:103A36006F34123403343A34FA34ED34EB343A3416
:103A4600F300312D710886007208870001089C3149
:103A5600E8249D310130F1070030F23D0130F302D8
:103A6600730A031D372D382D252D0800462D7108A4
:103A760084007208850000089C31DE249D310130E7
:103A8600F1070030F23D71088400720885001200CB
:103A9600031D4E2D4F2D3A2D08007108803AF20075
:103AA60080307202031D592D0130700203185C2DFF
:103AB6005D2D692D7009F2007109F300F20A0319F0
:103AC600F30A7208F0007308F100692D080021005E
:103AD6006B086C04031D702D712D7F2D2300EC01E6
:103AE600EC0A00302100EB000430EC00013023002A
:103AF600BA070030BB3D832D0130EB020030EC3BB2
:103B0600080023002308D6002208D5002108D40087
:103B16002008D3009F3184279D3123005408DC0000
:103B26005308DB005B083000A30023005C08013962
:103B36003000A40011170800F20023009D1CA42DDC
:103B4600A52DB32D1D121D16B32D700886008701F5
:103B56009D3100259D3181000130F1007108F0078B
:103B66000130F202720A031DB92DBA2DA82D0800E4
:103B7600F400D02D7008860087010108F300710853
:103B8600860072088700730881000130F30073080D
:103B9600F0070130F1070030F23D0130F402740AFB
:103BA600031DD62DD72DBD2D080088318A209D31C5
:103BB60068302300E300E430890BDF2DE30BDF2DB3
:103BC60000008731EA279D3123006C080319EC2D8C
:103BD600ED2DE72D96312E269D312300EC01E72DA4
:103BE60080317A2880302000B7063B08A3003A08C7
:103BF600A2003908A1003808A0003708A700360837
:103C0600A6003508A5003408A4008531E2259D31BB
:103C160020002308B7002208B6002108B5002008B6
:103C2600B4000800230023082100A3002300220873
:103C36002100A200230021082100A1002300200862
:103C46002100A0009F3113279E3121002108AB00DF
:103C56002008AA002A083000A30021002B080139F9
:103C66003000A40011170800F800F401F5017008EF
:103C7600F200F3017208F6007308F700781C442E70
:103C8600452E492E7608F4077708F53D0130F635BE
:103C9600F70D890B4A2E0310F80C7808031D542ED5
:103CA600552E412E7508F1007408F0000800220018
:103CB600A800A401A5012008A200A3012208A600CD
:103CC6002308A700281C682E692E6D2E2608A40737
:103CD6002708A53D0130A635A70D890B6E2E0310CA
:103CE600A80C2808031D782E792E652E2508A1001C
:103CF6002408A000080020000D1168302200A00052
:103D0600E430890B842EA00B842E000020008D1138
:103D160068302200A000E430890B8F2EA00B8F2E76
:103D2600000020000D1268302200A000E430890B4C
:103D36009A2EA00B9A2E000020008D1268302200C9
:103D4600A000E430890BA52EA00BA52E00000800CC
:103D56001A30890BAC2E00327008F200F20DF20D0B
:103D660021001D087206833972069D001A30890BE0
:103D7600BA2E003221009D149D18C22EC32EBF2ECE
:103D86001C08F200F3017208F300F201003072051C
:103D9600F5000F307305F60075081B04F70076086A
:103DA600F8007708F9007808FA007A08F10079082F
:103DB600F00008002100ED01ED0A0030D0000030CF
:103DC600CF000030CE000030CD0000302300B70019
:103DD6000030B6000030B5000030B4002100D90133
:103DE600DA0142302300A3004830A2000030A100CF
:103DF6000030A0009E3115269E319031E4209E3180
:103E060068302100AC00E430890B072FAC0B072F7C
:103E160000002300BA01BB012100E501E50A080004
:103E260003102100220D230DA9002908031D1C2FB4
:103E36001D2F262F0030A3000030A2000030A10065
:103E46000030A000832F2008A4002108A500220826
:103E5600A6002308A7001F30A736A60CA50CA40CA5
:103E6600890B2F2F2408A800A217FF30A005FF30CA
:103E7600A105FF30A2050030A3059630A902A91FAF
:103E8600452F462F5E2F2908803A973E03184C2F60
:103E96004D2F4E2F1D2F0130A336A20CA10CA00CC6
:103EA600890B4F2F0130A4002408A907031D5C2F9E
:103EB6005D2F4E2F732F20302902031C632F642F92
:103EC6006E2F1D2F0130A035A10DA20DA30D890B5C
:103ED600662F0130A9022908031D722F732F652F43
:103EE60028080319772F782F832FA009A109A20983
:103EF600A309A00A0319A10A0319A20A0319A30A0E
:103F0600080003102300550D560D2200EF006F0820
:103F1600031D8E2F8F2F992F00302300D6000030DF
:103F2600D5000030D4000030D300FF2F2300530803
:103F3600D7005408D8005508D9005608DA001F30B3
:103F4600DA36D90CD80CD70C890BA32F57082200C8
:103F5600EE002300D517FF30D305FF30D405FF3020
:103F6600D5050030D60596302200EF02EF1FBC2F94
:103F7600BD2FD72F6F08803A973E0318C32FC42F43
:103F8600C52F8F2F01302300D636D50CD40CD30C79
:103F9600890BC62F0130D70057082200EF07031DF3
:103FA600D52FD62FC52FEE2F20306F02031CDC2F06
:103FB600DD2FE92F8F2F01302300D335D40DD50DFA
:103FC600D60D890BDF2F01302200EF026F08031D8B
:103FD600ED2FEE2FDE2F6E080319F22FF32FFF2F92
:103FE6002300D309D409D509D609D30A0319D40A5B
:0A3FF6000319D50A0319D60A0800C2
:020000040001F9
:08000000FF3FFF3FFF3FFF3F00
:04000E00E431FF1EBC
:00000001FF
